:020000040000FA
:100000000203370218034100C4002202180B222207
:0100100022CD
:07001300021813E4FF81DD78
:07001B0002181B75C8012249
:030023000218239D
:03002B0002182B8D
:030033000218337D
:03003B0002183B6D
:030043000218435D
:03004B0002184B4D
:030053000218533D
:03005B0002185B2D
:030063000218631D
:03006B0002186B0D
:10007300021873BB010689828A83E0225002E722B9
:10008300BBFE02E32289828A83E49322BB010CE54F
:100093008229F582E5833AF583E0225006E9258239
:1000A300F8E622BBFE06E92582F8E222E58229F57D
:1000B30082E5833AF583E49322BB010689828A832E
:1000C300F0225002F722BBFE01F322F8BB010DE53B
:1000D3008229F582E5833AF583E8F0225006E92583
:1000E30082C8F622BBFE05E92582C8F222C5F0F8D4
:1000F300A3E028F0C5F0F8E582158270021583E0CD
:1001030038F022A3F8E0C5F025F0F0E582158270FF
:10011300021583E0C838F0E822BB010A89828A838A
:10012300E0F5F0A3E022500687F009E71922BBFEB1
:1001330007E3F5F009E3192289828A83E493F5F052
:1001430074019322BB010A89828A83F0E5F0A3F04C
:10015300225006F709A7F01922BBFE06F3E5F009C2
:10016300F31922EF2BFFEE3AFEED39FDEC38FC22BA
:10017300C3EF9BFFEE9AFEED99FDEC98FC2275F020
:1001830008758200EF2FFFEE33FECD33CDCC33CC99
:10019300C58233C5829BED9AEC99E58298400CF5B4
:1001A30082EE9BFEED9AFDEC99FC0FD5F0D6E4CEE2
:1001B300FBE4CDFAE4CCF9A88222B800C1B9005916
:1001C300BA002DEC8BF084CFCECDFCE5F0CBF978E3
:1001D30018EF2FFFEE33FEED33FDEC33FCEB33FB77
:1001E30010D703994004EB99FB0FD8E5E4F9FA2201
:1001F3007818EF2FFFEE33FEED33FDEC33FCC933FC
:10020300C910D7059BE99A4007EC9BFCE99AF90FC3
:10021300D8E0E4C9FAE4CCFB2275F010EF2FFFEE2F
:1002230033FEED33FDCC33CCC833C810D7079BEC7A
:100233009AE899400AED9BFDEC9AFCE899F80FD5F2
:10024300F0DAE4CDFBE4CCFAE4C8F922EF5BFFEE8D
:100253005AFEED59FDEC58FC22EB9FF5F0EA9E4265
:10026300F0E99D42F0E89C45F022E8600FECC313EF
:10027300FCED13FDEE13FEEF13FFD8F122E8600F40
:10028300EFC333FFEE33FEED33FDEC33FCD8F12245
:10029300E0FCA3E0FDA3E0FEA3E0FF22E0F8A3E07F
:1002A300F9A3E0FAA3E0FB22ECF0A3EDF0A3EEF058
:1002B300A3EFF022A8828583F0D083D0821202CEEE
:1002C3001202CE1202CE1202CEE473E493A3C583CC
:1002D300C5F0C583C8C582C8F0A3C583C5F0C5836F
:1002E300C8C582C822E0FBA3E0FAA3E0F922F8E044
:1002F300FBA3A3E0F925F0F0E582158270021583D4
:10030300E0FA38F022EBF0A3EAF0A3E9F022D0837D
:10031300D082F8E4937012740193700DA3A393F841
:10032300740193F5828883E4737402936860EFA386
:10033300A3A380DF75814B020B0B7F0191DD90003E
:10034300BCE07111036304036B1403701503751789
:10035300038530038A34038F360394370000037D0B
:100363005346EF854680802F5347EF80085347DF7E
:10037300800353477F854790801D5348DF8548A0FE
:1003830080155349FE800D5349EF80085349BF80C0
:100393000353497F8549B07F0CDFFE2271417FD72C
:1003A30091427FFF914271B49000B7EFF07FFF91CC
:1003B30042E5C820E2FBAFEB227F0191DD900927E4
:1003C3007401F0900927E0603391E971B090092737
:1003D300EFF0B114719F9000B8EFF0B114900927BA
:1003E300E05401F09000B7E0FFF460D7A3E0F460BD
:1003F300D2EF30E7CEE4900927F080C771417F9FA9
:10040300914271B09000B971AE9000BE71AE900090
:10041300BFEFF091D99000B7E0F4601BA3E0F46064
:10042300169000BEE0FD541F240FA3F0EDC4135437
:100433000744809000BEF02251937808516DE4E5A3
:10044300C820E2FB8FEB227F0191DD30021491E99A
:1004530071B0900929EFF0B114900929E020E0026E
:10046300C20230021C719F9000B8EFF09000B7E019
:10047300FFF4600BA3E0F46006EF30E702C202B1C1
:1004830014E4FF91DDA202E433FF2290090C51AB87
:1004930090090C5193B199900910E06F6034110ADF
:1004A300914AEF6004110E80F7B10871419000BAD0
:1004B300E0FFD1B9600990090C51937810913F90F6
:1004C300090C913B90090C91EF900910E0FF91D733
:1004D300D322C3229142B114E4FFEFB4010443FEDB
:1004E300202253FEDF2271417F0581425193E48133
:0A04F3004274FFF5F0310645F022D7
:100508007F0191DDD20271417F06914212112DEFD8
:1005180070FA9000BEE0F4600F9009267406F0901F
:100528000926E014F0E070F79000BCE07111055264
:1005380004055A14055F15056417057430057934E8
:10054800057E360583370000056C434610854680D6
:10055800802F434710800843472080034347808506
:100568004790801D4348208548A080154349018055
:100578000D43491080084349408003434980854919
:10058800B0900926740CF0900926E014F0E070F79A
:100598002290090751AB110A914AEF6004110E80AD
:1005A800F7D1B1600990090751937810913F9009EC
:1005B80007913B90090791EF71B090090BEFF0910B
:1005C800D990090BE0FF229000D151AB9000D57172
:1005D80008110A914AEF6004110E80F7B1087141C1
:1005E8009000BAE0FFD1B960099000D1519378101A
:1005F800913F9000D1913B9000D15193E4801B90A2
:1006080000D891F460189000D551E8EA494B600889
:100618009000D512144F8001E4FF914280E1B1149B
:10062800E4FF81DD110A914AEF6004110E80F7B1F1
:100638000871417F0191427F039142B114E4FF8127
:10064800DD9000DA51AB9000DE7108110A914AEF93
:100658006004110E80F7D1B160099000DA519378E7
:1006680010913F9000DA913B9000DA91EF9000E111
:1006780091F4601571B09000DE51E8EF11BC900064
:10068800DFE475F00111F080E4B114E4FF81DD903E
:1006980000B7E020E012713D7F3D91427F2A9142F0
:1006A8007F8091427FA691D7227F0191DD71417FA2
:1006B8000391429000BDE06402229000B9E011BCB1
:1006C8009000BEE090000111CE9000BFE0900002C3
:1006D80001CE900928EFF09000C5E0640270227105
:1006E8003D900928E07FAB60027FB99142B1149038
:0806F8000928E09000C4F07035
:10070000047F1EDFFEE4FF91DD229000C651AB9016
:1007100000CA710812142F9000CD1211019000C66A
:1007200051931210645002E1D39000C1E024FFFF06
:100730009000C0E034FFFEE4FCFD9000C6519F51E4
:100740004F9000CFEEF0A3EFF04E603BF1D5C39099
:1007500000C1E09FFF9000C0E09EFE9000CFF0A39C
:10076000EFF09000CDE0FCA3E0FDD39FEC9E50069F
:10077000A3ECF0A3EDF01213EAE94A6004F1D5808E
:10078000467E007F0080409000CDE0FEA3E0FF4E5B
:10079000603F9000C0E0FCA3E0FDD3EF9DEE9C40E5
:1007A0000A9000CFECF0A3EDF0800D9000CDE0FFBB
:1007B000A3E0A3CFF0A3EFF01213EAE94A6004F13B
:1007C000D580047E007F009000CBEE8FF011F0808A
:1007D000B6D322C3229000CFE0FEA3E0FF22110A8D
:1007E000914AEF6004110E80F7227B017A0079BCF8
:1007F0007F03120A1D7A0079C57F08120A1D7A004C
:1008000079C27D027F091209B77B017A0079C07D28
:10081000027F0B31B79000C0E0FEA3E0FF4E600600
:10082000BEFF1CBFFF199000C5E024FD60030470EB
:10083000055114F080099000C0E4F0A37440F090DA
:1008400000C5E024FD60030470089000BD7403F04F
:1008500080069000BD7402F09000BCE01203110805
:100860007B04088614088E1508961708AC3008B467
:100870003408BC3608C437000008A175FF01534294
:10088000EF8542FD804775FF015343EF800E75FFF2
:10089000015343DF800675FF0153437F8543C980C1
:1008A0002C75FF015344DF8544CA802175FF015335
:1008B00045FE801675FF015345EF800E75FF01530D
:1008C00045BF800675FF0153457F8545CB12051452
:1008D0007F1131A9E4FF1206DA1203BC9000BA744A
:1008E00002F09000BEE0247F600904701731AF74FD
:1008F0000A800712069731AF7458F09000BD740358
:10090000F05114F09000BFE0F4600221A69000C204
:10091000E0FEA3E0FF64104E70069000BF740EF07E
:10092000EF64204E70069000BF740FF0EF64404EED
:1009300070069000BF7410F0EF64804E7006900057
:10094000BF7411F0E4B5070AEEB401069000BF745D
:1009500012F0E4B5070AEEB402069000BF7413F07B
:10096000E4B5070AEEB404069000BF7414F0E4B5D1
:10097000070AEEB408069000BF7415F0E4B5070A44
:10098000EEB410069000BF7416F0E4B5070AEEB49A
:1009900020069000BF7417F0E4B5070AEEB44006D5
:1009A0009000BF7418F002062CEF4420F5FE227F61
:1009B0001031A99000BA22900911EFF0A3EDF0A335
:1009C000120308900912E0604A901215E06012903C
:1009D0000911E02410FF51249009131202E8EF805E
:1009E00017900911E0640190091370071202E8746E
:1009F0008080051202E874FF1200BC900914E475AF
:100A0000F0011200F0900912E014F0900911E004D6
:100A1000F080B0229000C07401F0A3E4227D013187
:100A2000B77B012275FF03E4F597F1EFE59720E12D
:100A3000FB75FF03AF992290091B7410F090091BFE
:100A4000E0FFD3947F503C512490091CEFF09009B3
:100A50001BE0B410067E1D7F0F800890091DE0FE8C
:100A6000A3E0FF7B017A09791C9000E8E4F0A3047D
:100A7000F051A390091DEEF0A3EFF090091BE004E4
:100A8000F080BA90091DE07002A3E07F0070027F41
:100A900001901215EFF024FF22E0FD9000E8E4F051
:100AA000A3EDF09000E3EEF0A3EFF0A312030890A3
:100AB00000E81204F4604B9000E512144F9000EA35
:100AC000F07D80ED60E97102EE7C0030E7027C0190
:100AD0009000EAE05D7B0060027B01EB6CFCEF259F
:100AE000E0FFEE339000E3F0A3EFF0AF04EF600C13
:100AF0009000E3E06410F0A3E06421F0EDC313FD87
:100B000080C19000E3E0FEA3E0FF2275FF03759E25
:100B1000029017FAE493F53C75FF02E5E654036092
:100B200002C1B4753CDE753DAD753EBE753FEFC28A
:100B3000AF75FF0275E404F5E47546FF7547FF7570
:100B400048FF7549FF7542FF7543FF7544FF7545C2
:100B5000FF75FF0253E6BF51371207EA121139EF52
:100B600064016002C1AB90180893FE740193FF907A
:100B700000ADEEF0A3EFF0F5828E83E493F54074C0
:100B80000193F541740293F54A740393F54B740491
:100B900093F530740593F531740693F53274079329
:100BA000F533C201EF4E7002818BEFF4FFEEF44F8C
:100BB0007002818BE540454AFEE541454BFFE5303B
:100BC0004EFEE5314FFFE5324EFEE5334F4E7002EB
:100BD000818BE54BF4FFE54AF4FEE541F4FDE54089
:100BE000F44EFEED4FFFE531F4FDE530F44EFEEF3F
:100BF0004DFFE533F4FDE532F44EFEEF4D4E70024D
:100C0000818B7F03D1B7E53324FFFFE532F1E66442
:100C10000370227F02D1B7E53124FFFFE530F1E612
:100C2000B402127F01D1B7E54B24FFFFE54AF1E69C
:100C3000B40102D2012001537F01D1B7121002E5A5
:100C40004AF0A3E54BF07F0F7E1DD1E37F02F1F860
:100C5000E530F0E531D1E17F03F1F8E532F0E5333D
:100C6000D1E17F01D1B7900922E0FEA3E0FF7BFF35
:100C70007A187900E425419000E9F0E54034E890E5
:100C800000E8D1E24EC37001D3920130010A121282
:100C90000FEF64016002C1AB9000ADE0FEA3E0F590
:100CA000828E83740C93F53A740D93F53B90009605
:100CB000120293D1C7900079E0FEA3E0FFF1C8D102
:100CC000FCEF2408FFE43ED1D97B007A007938F1AB
:100CD000D17402F0120649C200D3900078E0953931
:100CE000900077E095384002A1B69000AF12029FC5
:100CF000C000C001C002C003AE38AF39E4FCFDC083
:100D000006C007900077E0FEA3E0FBAA06E4F9F82E
:100D1000D007D006120173D003D002D001D0001248
:100D20000166D1C790007B120293EF24F2FFEE34EC
:100D3000FF121442121208507D9000AF1202937AF3
:100D400000799FF1CF740EF01206499000ABE0F5E8
:100D500036A3E0F5379000A1E0F54AA3E0F54BA3F8
:100D6000E0F530A3E0F531A3E0F532A3E0F53390F0
:100D70000092120293EF24FFFFEE347FD1D9D1C746
:100D8000AE4AAF4BF1C8D1FC120599EF6401702651
:100D9000D1CDD1C7AE30AF31F1C8D1FC120599BF6A
:100DA0000214D1CDD1C7AE32AF33F1C8D1FC120598
:100DB00099BF0302D200200002C1A630010EE53B1C
:100DC00065377004E53A65367002C1A67B017A0981
:100DD0007922F1024002C1A690009B1202B70000E6
:100DE0001800D1EEC17E7440D395345002C1939067
:100DF000007BF1C1EE34F812144212029FD31202AA
:100E00005C4002C19390009B1202937B007AF879B8
:100E1000017800C312025C407A9000AF1202930B7B
:100E20007A0179009000E17408F0A3E4F012064919
:100E3000E4F535FB12132EAF34121377E535C39466
:100E400008502112132CE5357F00FEEF2400F974C1
:100E5000013EFA7B0190091AE535F0AD341213A278
:100E6000053580D890009BF1C1EE3408D1D99000AF
:100E70009B1202AB9000AFF1C1EE3408D1D9D1C7BB
:100E8000E4FB7A08F9F890009B1202931201BD8FDF
:100E900034A1E67440D39534400C12132CAF3412B5
:100EA0001377053480EDE4FF1211BFE4F53CF53D06
:100EB000F53EF53F021800AEFFEE54CFFEEFC454EE
:100EC000F024804EF5FF229000AF0202AB9000AFFD
:100ED000120293E42FFFEE3480FEE43DFDE43CFC7F
:100EE00022A3F051A3900922EEF0A3EFF02290008C
:100EF00079E0FEA3E0FFE4FCFD90009612029F0261
:100F0000016690091F120308D1EEEF2408FFE43EAA
:100F1000D1D97A00797FF1CF7402F012064990009E
:100F20007FE0FEA3E0FFE4FCFD900092D1FC7B019A
:100F30007A007984F1D1740EF0120649900092D1B2
:100F4000D0F1E09000861214357F0F7E1D1212F151
:100F500012011CFFAEF0C006C007F1BEE43EF1D89E
:100F6000900088121435D007D0061212F112011C1D
:100F7000FFAEF0C006C007F1BEEE3480F1D890009D
:100F80008A121435D007D0061212F112011CFFAEDE
:100F9000F0C006C007D1EEF1E0900085E02400FE2D
:100FA000900084E034E8900006F0A3CEF0D007D0A3
:100FB000061212F112011C45F0C37001D3229000F9
:100FC00092120293E42FFF22E4FCFD9000AF227BFB
:100FD000019000E1E4F0A322FEED3401FDE43CFCCD
:100FE0009000020202AB347F8F82F583E493227576
:100FF000FF038F9875FF0322D1B7900922E0FEA36B
:10100000E0FF7BFF7A8079009000E822E4FCFD029B
:101010000599AB05E4FCFD900910EBF002048E90FD
:1010200000FC120308E4FCFDC0079000FC1202E87B
:101030009000FFE0FF120FD1EFF0D00702064990B9
:1010400000F5120308E4FCFDC0079000F51202E869
:101050009000F8E0FFA3E09000CDCFF0A3EFF0D038
:101060000702070A90004F1202AB900053120308C8
:10107000E4900076F0D3900057E0941E900056E084
:1010800094004001227B017A007958900056E0FFDD
:10109000A3E09000E1CFF0A3EFF090004F12029395
:1010A0001206499000531202E8E94A600F90007658
:1010B000E0F58275830012008FFF80027F009000B0
:1010C00076E02458F582E43400F583E06F6002C3D3
:1010D00022900076E004FFF0D3900057E09F90004C
:1010E00056E0940050BD22900902120308E4FCFD72
:1010F000C0079009021202E89009053101D00701EA
:1011000064E0FFA3E0900056CFF0A3EFF022EFB42D
:101110000109D2AD75FF0143AE4022C2AD75FF019A
:1011200053AEBF22E5C85402FF75C80222E5C85479
:1011300004FF22E5C85401FF22E490009AF07B01ED
:101140007A0079811206C2900083E0FBB4112290EC
:1011500000961202B7000078009000921202B700C9
:101160000060009000777418F0A3E4F0A3F0A3806F
:10117000277412D39B50279000961202B7000200EA
:10118000009000921202B700020000E4900077F095
:10119000A3F0A37418F0A3E4F090009A04F0900078
:1011A0009AE0FB6017E4FFFE7D02FC900083E024E0
:1011B000EFF9F812028090007B1202ABAF0322908D
:1011C0000924EFF0E4A3F090009AE0602131FF7071
:1011D0000831F47E777D00800A5140501131F47E51
:1011E000FF7D017C0012048EE433900925F0900904
:1011F00025E0FF22900924E0900910F07FFF22E40F
:10120000FFFE7D02FC90007B12029FC302025CE4A1
:1012100090092AF090009AE0602031FF70087FFF6B
:101220007E77FDFC800C514050107FFF7EFF7D01DA
:101230007C0012059990092AEFF090092AE0FF221C
:1012400090007B120293E4FBFA7904F8D302025C6B
:10125000900000EEF0A3EFF0A312029390000812AA
:1012600002AB900006E0FFA3E090000CCF807390EB
:10127000000CE0FEA3E0FF4E606EC3EF9440EE94DE
:10128000004006A37440F0800590000EEFF07B0153
:101290007A00790F90000EE0FF120FD1EFF090006E
:1012A0000812029312064990000EE0FFC390000D51
:1012B000E09FF090000CE09400F090000812029F74
:1012C00090000EE4FCFDFE1201669000081202ABD5
:1012D00051E87B017A00790F90000E120A99900074
:1012E00000EEF0A3EFF08087900000E0FEA3E0FFA7
:1012F00022515090091F1202E8EE8FF01201479020
:10130000091F0202E87F0F7E1D120A9B9000EF1258
:1013100002E89000F2020A9975FF03759701120F17
:10132000EFE59720E1FB75FF03AF99227B007A0080
:10133000793C75FF0375D40275FF03120076F5D36F
:1013400075FF03900001715E900002715E900003D2
:10135000715E75D40175FF03E5D55402FF221200BA
:101360008FF5D375FF032275FF0375D40275FF0354
:10137000E5D5F45402FF2275FF03EF543F4480F596
:10138000D1E5D520E20AE5D520E005E5D530E1F14B
:10139000E5D55403FF75FF0375D50575FF0375D4B7
:1013A000022275FF03ACD5EC20E13C75FF03ED5440
:1013B0003FF5D175FF03E9F5D375FF03EA540FFF3D
:1013C00090091AE0C4547044804FF5D2E5D520E26C
:1013D00005E5D530E0F6E5D55401FC75FF0343D4AF
:1013E0000275FF0375D505AF04229000CA1202E80A
:1013F0009000CFE0FFA3E09000D8CFF0A3EFF090F3
:1014000000C61202931205CF9000CFE0FEA3E0FFCA
:10141000C39000CEE09FF09000CDE09EF09000C61B
:1014200012029FE4FCFD1201669000C61202AB900E
:1014300000CA0202E8E0FFA3E0900006CFF0A3EFAD
:10144000F022FEED34FFFDEC34FFFC9000AF22E40F
:0914500075F0011202F1020076B0
:1017FA000436FFFEFFFF0229ED1A5C1A61227FB848
:10180A00EF90181393901900730A20364CE55CFF89
:10181A0022EFF55C225A2D5761766520342E353435
:10182A000002493BE4FFFE122046600C0FEF7001F4
:10183A000E09E970F20A80EF22822D1C161311108C
:10184A0010023CD9902BF7EBF0A3EAF0A3E9F0E4FD
:10185A00902BFFF0A3F0902BFD74FFF5F012215F9F
:10186A0045F0603C902BFAE0FBA3E0FAA3E0F91202
:10187A002046FF902BF7E0FBA3E0FAA3E0F9902BB8
:10188A00FFE475F00112215F85F082F583EF1220E3
:10189A00C0EF60C2902BFBE475F00112214980B6BB
:1018AA00902BF7E0FBA3E0FAA3E0F922C2D5E830D7
:1018BA00E70FB2D5E4C39BFBE49AFAE499F9E498FA
:1018CA00F8EC30E717B2D51218EC122265E4C39B84
:1018DA00FBE49AFAE499F9E498F880031222653055
:1018EA00D50DE4C39FFFE49EFEE49DFDE49CFC222B
:1018FA001B511B561B5BC05C7419C0E0C082C083BD
:10190A00755C0AE5FF54CF4490F5FF22C05C741958
:10191A00C0E0C082C083755C20E5FF54CF4490F5D7
:10192A00FF22C05C7419C0E0C082C083755C36E5D2
:10193A00FF54CF44A0F5FF22C05C7419C0E0C082F6
:10194A00C083755C4CE5FF54CF44B0F5FF2290800C
:10195A000421169087FF211690880221169097F588
:10196A002116909FF4211690A804211690AFF42115
:10197A001690AFFF2116908773211690B82E211664
:10198A00908929211690C020211690C021211690F5
:10199A00C0F5211690B2F8211690C4C8211690C439
:1019AA00E0211690BF3E211690AE9A211690C58965
:1019BA00211690A2BD211690C83C211690C851212B
:1019CA001690C863211690C8DB211690B9CB211650
:1019DA0090B956211690B8AF211690CBEC211690EB
:1019EA00CB7F211690CBCC21169088C8211690CC9B
:1019FA0004211690BCBA211690BEE8211690BCB8F4
:101A0A00211690CC38211690AF61211690BC662120
:101A1A001690BB1C211690BD3C211690BD7621164E
:101A2A0090882C211690886E211690BDBE211690A2
:101A3A00CDAE211690B01F211690BFCE211690CEA2
:101A4A0075211690CAA5211690C9FF211690CA556C
:101A5A00211690CF23211690879F211690B9B8217D
:101A6A001690A714212C90A71A212C90AC68212C2F
:101A7A00909711212C90B2D0212C90B2EA212C906F
:101A8A00B5A6212C90B81D212C90BD66212C90BDA5
:101A9A006C212C9098FA212C90BE13212C90A15FD6
:101AAA00212C90BE14212C90B609212C90BC5C21CB
:101ABA002C90BA3A212C90C491212C90C469212CE3
:101ACA0090A23C212C90C4FD212C90C505212C907C
:101ADA00A28D212C908277212C90B1AC212C90B22E
:101AEA00A0212C90BA01212C90C8C7212C90BBAE02
:101AFA00212C90AFDC212C90CAAE212C90CAF02167
:101B0A002C90CB0A212C90CB5E212C90C9BC212C85
:101B1A0090CBD9212C90AE17212C90CC57212C9008
:101B2A00CC5D212C90CC69212C90CC75212C90AEC7
:101B3A0024212C90CCA0212C90CCFA212C90CD4998
:101B4A00212C90A2C2212C90CDBF212C90CE6D21A8
:101B5A002C90B7FA212C90CE7C212C90AE63212CAC
:101B6A0090AC64212C90CEB1212C90CE96212C00E1
:101B7A00021F3BE86480F8E933E83360110460F03F
:101B8A00ED33EC337009E8FCE9FDEAFEEBFF2204D1
:101B9A0060DED3EB9FEA9EE99DE8C2E78CF0C2F7CC
:101BAA0095F0400CE8CCF8E9CDF9EACEFAEBCFFB98
:101BBA00121F0685D0F05804700320D5B3E80470CC
:101BCA00075002B2D5021F4592D5EC0460F7E4CC67
:101BDA00C0E0C398F8603B94186008400DD0E0FB61
:101BEA00021F1DE4FBFAC9FC8028E830E406E4C9B8
:061BFA00FBE4CAFCE83028
:101C0000E305E4C9CACBFCE854076010F8C3E91344
:101C1000F9EA13FAEB13FBEC13FCD8F130F52FC300
:101C2000E49CFCEF9BFFEE9AFEED99FDD0E0FBEF0C
:101C30004E4D4C701222DB03021F42EC2CFCEF33A2
:101C4000FFEE33FEED33FDED30E7EB021F1DEF2B12
:101C5000FFEE3AFEED39FDD0E0FB50130BBB000365
:101C6000021F45ED13FDEE13FEEF13FFEC13FC0214
:101C70001F1DEC4D6011E8497017ED33EC33046023
:101C80000DE4FCFFFEFD22E933E8330470F8021F87
:101C90003B121F0658046009E4CC248150062850EA
:101CA00009021F45284003021F42C0E0EB4A70446E
:101CB000B98006D0E0FB021F31EF4E701CBD8008DA
:101CC000EBFFEAFEE9FD80EBE98DF0A4FEE5F00212
:101CD0001D5BE9CDF9EAFEEBFFEF89F0A4FCE5F02E
:101CE000CE89F0A42EFFE435F0CD89F0A42DFEE4DA
:101CF00035F08067EF4E7005BD80D780C3EF8BF065
:101D0000A4ACF0EE8BF0A42CFCE435F0F8EF8AF0F4
:101D1000A42CE5F038FCE433CB8DF0A42CFCE5F0EA
:101D20003BF8EE8AF0A42CFCE5F038F8E433CF89D8
:101D3000F0A42CFCE5F038CF3400CE89F0A42FFFBE
:101D4000E5F03EFEE433C98DF0A42EFEE5F039CD7A
:101D50008AF0A42FFFE5F03EFEE43DFD33D0E0FB2A
:101D600050070BBB000F021F45EC2CFCEF33FFEEBE
:101D700033FEED33FD021F1D021F45EC5D046005BF
:101D8000E859047003021F3B121F06580460F6EC6A
:101D90004860F2EC7004FDFEFF22C860DB2481C8BD
:101DA0005009C39860025006021F429850CAF5823B
:101DB000E9294B4A7005AB82021F3175F0007C1A8D
:101DC0007880C3EF9BEE9AED99400DC3EF9BFFEE39
:101DD0009AFEED99FDE842F0DC23ACF0D0E0FFD0B4
:101DE000E0FED0E0FDAB8220E7101BEB60BAEC2CEC
:101DF000FCEF33FFEE33FEED33FD021F1DE803F869
:101E000030E705C0F075F000EF2FFFEE33FEED3345
:101E1000FD40B830E7C280AA74F8CC6480CCC864B6
:101E200080C8F58204604FC3EB9FF5F0EA9E42F054
:101E3000E99D42F0E89C45F0603C501DE5825FFF63
:101E4000E582D313CB5BCBF42B5582FB50280ABA27
:101E5000002409B9002008801DE5825BFBE582D3E0
:101E600013CF5FCFF4C3132F5582FF50090EBE006E
:101E7000050DBD00010CC3EB9FF5F0EA9E42F0E9B1
:101E80009D42F0E89C45F06007CC4820E701B3ECA8
:101E90002275F020800E75F010800575F0087D0029
:101EA0007E007F003392D530D503122311EC3340EE
:101EB00010EF33FFEE33FEED33FDEC33FCD5F0EDE8
:101EC00022E5F0247EA2D513CC92E7CDCEFF22ED01
:101ED000D2E7CD33EC3392D524814006E4FFFEFDFA
:101EE000FC22FCE4CFCECDCC24E0501174FF80ED79
:101EF000C3CC13CCCD13CDCE13CECF13CF0470F003
:101F000030D5DE022311E9D2E7C933E833F892D5A0
:101F1000EDD2E7CD33EC33FC5002B2D522EC30E702
:101F2000100FBF000C0EBE00080DBD00040BEB60CF
:101F300014A2D5EB13FCED92E7FD2274FFFCFDFE2D
:101F4000FF22E480F8A2D574FF13FC7D80E480EFCB
:101F5000E709F608DFFA8046E709F208DFFA803E73
:101F600088828C83E709F0A3DFFA8032E309F60860
:101F7000DFFA8078E309F208DFFA807088828C83C8
:101F8000E309F0A3DFFA806489828A83E0A3F6087C
:101F9000DFFA805889828A83E0A3F208DFFA804C56
:101FA00080D280FA80C680D4806980F2803380102D
:101FB00080A680EA809A80A880DA80E280CA803396
:101FC00089828A83ECFAE493A3C8C582C8CCC5830E
:101FD000CCF0A3C8C582C8CCC583CCDFE9DEE780DE
:101FE0000D89828A83E493A3F608DFF9ECFAA9F05D
:101FF000EDFB2289828A83ECFAE0A3C8C582C8CCB3
:10200000C583CCF0A3C8C582C8CCC583CCDFEADECB
:10201000E880DB89828A83E493A3F208DFF980CC2D
:1020200088F0EF60010E4E60C388F0ED2402B40426
:102030000050B9F582EB2402B4040050AF232345CD
:102040008223901FA073BB010689828A83E02250FD
:1020500002E722BBFE02E32289828A83E49322BB49
:10206000010CE58229F582E5833AF583E0225006EA
:10207000E92582F8E622BBFE06E92582F8E222E5A0
:102080008229F582E5833AF583E49322BB0109892D
:10209000828A83F8E028F022500327F722BBFE054E
:1020A000F8E328F3228A838982F8E4932822BB018B
:1020B0000689828A83F0225002F722BBFE01F322B6
:1020C000F8BB010DE58229F582E5833AF583E8F056
:1020D000225006E92582C8F622BBFE05E92582C802
:1020E000F222EF8DF0A4A8F0CF8CF0A428CE8DF0D2
:1020F000A42EFE22BC000BBE0029EF8DF084FFADA4
:10210000F022E4CCF875F008EF2FFFEE33FEEC334D
:10211000FCEE9DEC984005FCEE9DFE0FD5F0E9E449
:10212000CEFD22EDF8F5F0EE8420D21CFEADF07568
:10213000F008EF2FFFED33FD4007985006D5F0F281
:1021400022C398FD0FD5F0EA22C5F0F8A3E028F0ED
:10215000C5F0F8E582158270021583E038F022A3FD
:10216000F8E0C5F025F0F0E582158270021583E0F5
:10217000C838F0E822BB010A89828A83E0F5F0A31F
:10218000E022500687F009E71922BBFE07E3F5F0CD
:1021900009E3192289828A83E493F5F0740193227A
:1021A000BB010A89828A83F0E5F0A3F0225006F78A
:1021B00009A7F01922BBFE06F3E5F009F31922EF97
:1021C0002BFFEE3AFEED39FDEC38FC22C3EF9BFF0E
:1021D000EE9AFEED99FDEC98FC22E88FF0A4CC8BF2
:1021E000F0A42CFCE98EF0A42CFC8AF0EDA42CFCCD
:1021F000EA8EF0A4CDA8F08BF0A42DCC3825F0FD0C
:10220000E98FF0A42CCD35F0FCEB8EF0A4FEA9F004
:10221000EB8FF0A4CFC5F02ECD39FEE43CFCEAA450
:102220002DCE35F0FDE43CFC2275F008758200EF00
:102230002FFFEE33FECD33CDCC33CCC58233C582F8
:102240009BED9AEC99E58298400CF582EE9BFEEDB1
:102250009AFDEC99FC0FD5F0D6E4CEFBE4CDFAE480
:10226000CCF9A88222B800C1B90059BA002DEC8B74
:10227000F084CFCECDFCE5F0CBF97818EF2FFFEE50
:1022800033FEED33FDEC33FCEB33FB10D703994009
:1022900004EB99FB0FD8E5E4F9FA227818EF2FFF49
:1022A000EE33FEED33FDEC33FCC933C910D7059B8B
:1022B000E99A4007EC9BFCE99AF90FD8E0E4C9FAE7
:1022C000E4CCFB2275F010EF2FFFEE33FEED33FD73
:1022D000CC33CCC833C810D7079BEC9AE899400A96
:1022E000ED9BFDEC9AFCE899F80FD5F0DAE4CDFB14
:1022F000E4CCFAE4C8F922EF5BFFEE5AFEED59FD9B
:10230000EC58FC22CFF4CFCEF4CECDF4CDCCF4CC2F
:1023100022C3E49FFFE49EFEE49DFDE49CFC22EBCF
:102320009FF5F0EA9E42F0E99D42F0E89C45F022DC
:10233000E8600FECC313FCED13FDEE13FEEF13FF8B
:10234000D8F122E8600FEFC333FFEE33FEED33FD2B
:10235000EC33FCD8F122BB010789828A83022398DF
:102360005005E9F80225D2BBFE05E9F80225DE2278
:10237000E0FCA3E0FDA3E0FEA3E0FF22E493FC74F5
:102380000193FD740293FE740393FF22E0F8A3E02F
:10239000F9A3E0FAA3E0FB22ECF0A3EDF0A3EEF04A
:1023A000A3EFF022A8828583F0D083D0821223BBD2
:1023B0001223BB1223BB1223BBE473E493A3C58394
:1023C000C5F0C583C8C582C8F0A3C583C5F0C58361
:1023D000C8C582C822A42582F582E5F03583F5833D
:1023E00022E0FBA3E0FAA3E0F922F8E0FBA3A3E0DC
:1023F000F925F0F0E582158270021583E0FA38F0D5
:1024000022F8E0FBA3A3E025F0F9F0E58215827045
:10241000021583E038FAF022EBF0A3EAF0A3E9F02A
:1024200022BB010789828A830223E15005E9F80271
:1024300025EABBFE05E9F80225FC89828A8302268B
:102440000EBB011A89828A83D0F0D0E0F8D0E0F97F
:10245000D0E0FAD0E0FBE8C0E0C0F002241850164B
:10246000E9F8D083D082D0E0F9D0E0FAD0E0FBC028
:1024700082C0830225F3BBFE16E9F8D083D082D058
:10248000E0F9D0E0FAD0E0FBC082C083022605224A
:10249000D083D082F8E4937012740193700DA3A3DB
:1024A00093F8740193F5828883E4737402936860EF
:1024B000EFA3A3A380DF8A838982E473EC8EF0A468
:1024C000CCC5F0CCCDF8EFA4CEC5F02DFDE43CFC9E
:1024D000E8A42EC8C5F03DFDE43CFCEFA4FFE5F008
:1024E00028FEE43DFDE43CFC22E709F60870FA8092
:1024F00046E709F20870FA803E88828C83E709F08B
:10250000A370FA807EE309F60870FA8076E309F298
:102510000870FA806E88828C83E309F0A370FA80D9
:102520006289828A83E0A3F60870FA805689828ADB
:1025300083E0A3F20870FA804A80D280FA80C680D5
:10254000D4806580F28031801080A680EA809A80F5
:10255000A880DA80E280CA803189828A83ECFAE43A
:1025600093A3C8C582C8CCC583CCF0A3C8C582C814
:10257000CCC583CC70E9800D89828A83E493A3F66D
:102580000870F9ECFAA9F0EDFB2289828A83ECFA53
:10259000E0A3C8C582C8CCC583CCF0A3C8C582C897
:1025A000CCC583CC70EA80DD89828A83E493A3F270
:1025B0000870F980CE88F0ED2402B4040050C4F510
:1025C00082EB2402B4040050BA23234582239025D1
:1025D0003973ECF608EDF608EEF608EFF622ECF2A9
:1025E00008EDF208EEF208EFF222E6FB08E6FA0840
:1025F000E6F922EBF608EAF608E9F622E2FB08E241
:10260000FA08E2F922EBF208EAF208E9F222E4938E
:10261000FB740193FA740293F922412B05004102E5
:10262000B200412EB300C13BC13141041506011473
:10263000004104140141041301C127011A000117CC
:1026400000C128C12AC11E4126A40041270AFF411A
:10265000270200C11DC11C41270B0041270C00416E
:10266000270301C1204126A300C12DC124012C0054
:10267000C121C122432D51000000412D5000412DA8
:102680005400C10841249000C10BC1904125A30012
:102690004124760041245F004125BA0141245E00B7
:1026A0004125B9004125C0004125360042247E0065
:1026B0000F442462000000004424CA0000000044CB
:1026C00024670026FF85C10E012000C10F4124614F
:1026D000FF412498004125AA00C192C10A4124C6A5
:1026E00000C109C10C4125BB05C113412492004121
:1026F00024B2284125440042247C000041254300A7
:1027000041247B004124AC0049246B4C6966656C14
:10271000696E65005324B352657472616E736D699E
:10272000745377697463684343004825B12003827A
:102730000132025A014C2484250120012604260579
:1027400026012B015324995E253231272C2B7085CD
:10275000595672867A7398EF5A824124AF00412409
:102760009700412453FF4124520041249300412506
:1027700034004125A20042245C000041253500417F
:10278000246000606624CE0000000000000000000D
:102790000000000000000000000000000000000039
:1027A0000000000000000000000000000000000029
:1027B0000000000000000000000000000000000019
:1027C0000000000000000000000000000000000009
:1027D00000000000000000000000000000000000F9
:1027E0000000000000000000000000000041245B29
:1027F000004124513C412D6DFF412D08FF412D0327
:10280000FFC1AEC130412D0200C12F442A0000009B
:1028100000004429FC000000004429F400000000EE
:102820004429EE000000004129EC00542A04000075
:102830000000000000000000000000000000000098
:1028400000004129ED004129F200C152432E12003F
:102850000000412E1500432D1F000000412D2400D3
:10286000C1574121C3004122840041207000C1387A
:10287000C13741206EFF412026004121C402412280
:1028800010FF4121FE0041275BFF4127D7FF412771
:10289000EAFF4127EBFF4127E9004127DE004127FE
:1028A000E8004327E30000004127E7004327D80062
:1028B00000004127DD004127E6004227EC000042EE
:1028C00027DF00004227E10000412AC700412AD04B
:1028D00000412AD400412AD300412ACF00412ACA0C
:1028E00000422AC80000422AD60000C15C41286884
:1028F000004128BAFF605028690103030000050564
:10290000001B650501001B650007010000020303B1
:1029100000000201001B650306001B650301001B8C
:10292000650101001B6501020200000008040000AF
:1029300004040500000004051B6F0005000000FFF3
:1029400003FE0000FFFFFE1B605928BE0207D01BDC
:102950006A0307D01B6A0500141B6A0107D01B6AB3
:102960000407D01B6AE00C026661008600000003C9
:10297000004E031C04360090261AE47E0193700179
:1029800022A3FF543F30E509541FFEE493A36001E6
:102990000ECF54E0B4E03AEFFAEEF9E493FBA3E48F
:1029A00093FEA3E493FFA3E493FDC083C082C00120
:1029B000C002C006C007121971D007D006D002D0DD
:1029C00001D082D083A30FEF70010EDADAD9D8805C
:1029D000A954C025E060105005A3DFFD809CA3A38F
:1029E000A3DFFDDEFB8093A3A3DFFD808D75818CCB
:1029F00075FF03759E02121920023243022AC69007
:102A0000261AE47E019360F4A3FF543F30E5095495
:102A10001FFEE493A360010ECF54E0B4E00EEFFA82
:102A2000EEF9A3A3A3A3DAFDD9FB80D654C025E019
:102A3000604B5026E493A3F85407240CC8C333C456
:102A4000540F4420C8834004F456800146F6DFE466
:102A500080B00102040810204080E493A3FAE493BC
:102A6000A3F8E493A3C8C582C8CAC583CAF0A3C8A3
:102A7000C582C8CAC583CADFE9DEE78085E493A3BF
:102A8000F8E493A34003F68001F208DFF4022A027F
:102A9000788CE4F6D8FD9000007F007E10E4F0A36F
:102AA000DFFCDEFA904FFFA3E583C394204011FEC4
:102AB000AF829020000E0FE48002F0A3DFFCDEFA6C
:102AC0001219200229FF22321A6B1A705E86729840
:102AD00056EF5A82253231272C2B70855956728633
:102AE0007A735A821A751A7A1A7F1A841A8EA16416
:102AF000A16C2174216400001ADE1AB11AB61ABB47
:102B00003F241E16110E0B09070504030201F0C82D
:102B1000A7917767604638353230242220140001AF
:102B2000010202030304040505060607070000006E
:102B3000000000000000000000000000001B241B3B
:102B4000291B2E1B331B381B3D1B421B47980500BE
:102B5000000DFA20000DDC7000000000020C0001E6
:102B60003F3F3F04040419E419E919EE19F319F879
:102B700019FD1A071A16BB161AFC1B011B061B0BA4
:102B80001B101B151B1A1B1F198F199E19A319A89F
:102B900019AD19B71B601B651B6A1B6F1B741ACA22
:102BA0001ACF1AD41AD91AC01AC5004000001AE365
:102BB0001AE81AF21AF71A391A431AED7F01D13DB1
:102BC000902AFDE01224902BE3042BEB142BF0153C
:102BD0002BF5172C05302C0A342C0F362C1437000B
:102BE000002BFD5353EF855380802F5354EF800803
:102BF0005354DF800353547F855490801D5355DF19
:102C00008555A080155356FE800D5356EF8008530E
:102C100056BF800353567F8556B07F0CDFFE227F60
:102C200001D13D902EB07401F0902EB0E06037716C
:102C3000C07F0591B4902EB0EFF0B15C91B0902AB6
:102C4000F8EFF091B6902AF9EFF0B15C902EB0E079
:102C50005401F19460D3A3E0F460CEEF30E7CAE40E
:102C6000902EB0F080C371C07F9F91B4902AFAEF8C
:102C7000F091B6902AFFEFF091B6902B00EFF0D1D3
:102C800039902AF8E0F4601BA3E0F46016902AFF64
:102C9000E0FD541F240FA3F0EDC4135407448090AB
:102CA0002AFFF022122370E4E5C820E2FB8FEB221A
:102CB00071C07FD791A87FFF91A8E5C820E2FBAF44
:102CC000EB227F01D13D30391671C07F0591B49060
:102CD0002EB2EFF0B15C902EB2E020E002C23930AB
:102CE000391E91B0902AF8EFF091B6902AF9EFF1E1
:102CF00094600BA3E0F46006EF30E702C239B15CE8
:102D0000E4FFD13DA239E433FF22902D85122398B0
:102D1000902D85122370D149902D89E06F602FF19D
:102D20001F91C2EF6004F10B80F7B15071C0F12E1A
:102D30006007902D85F17691A8902D85F16C91A872
:102D4000902D8591A4902D89E0FFD137D322C32205
:102D50007F01D13DD23971C07F0691A8F1E8EF70B3
:102D6000FB902AFFE0F4600A902EAF7406F0F18029
:102D700070FC902AFDE01224902D95042D9D142DB9
:102D8000A2152DA7172DB7302DBC342DC1362DC659
:102D90003700002DAF435310855380802F435410CC
:102DA00080084354208003435480855490801D4301
:102DB00055208555A08015435601800D435610803F
:102DC0000843564080034356808556B0902EAF741A
:102DD0000CF0F18070FC22902C01122398902C05AD
:102DE000122418F11F91C2EF6004F10B80F7B1506B
:102DF00071C0F12E6007902C01F17691A8902C0102
:102E0000F16C91A8902C01122370E48020902C0882
:102E1000F19C601D902C05125E7D600F902C05E4E6
:102E200075F0011223EA1220468001E4FF91A88088
:102E3000DCB15CE4FF800691A8B15CE4FFEFB40173
:102E40000443FE202253FEDF22902D80122398F1AE
:102E50001F91C2EF6004F10B80F771BC7F03F13367
:102E60006007902D80F17691A8902D80F16C91A84B
:102E7000902D80122370E491B4902D84EFF0D1391D
:102E8000902D84E0FF22902C0A122398902C0E1291
:102E90002418F11F91C2EF6004F10B80F771BC7F21
:102EA00003F1336007902C0AF17691A8902C0AF177
:102EB0006C91A8902C0A91A4902C11F19C600F9118
:102EC000B6902C0EF1F5902C0FE4F1EF80EAB15C96
:102ED000E4FFC13DF11F91C2EF6004F10B80F7B137
:102EE0005071C07F0191A87F0391A8B15CE4FFC13C
:102EF0003D902AF8E020E01271BC7F3D91A87F2A26
:102F000091A87F8091A87FA6D13722E51530E20EE7
:102F1000E51520E509E51530E0047F01F1AA2275E9
:102F2000FF02E5E430E10675E40675E40322902A29
:102F3000FBE0FF91A8902AFEE0640222902EB1EF00
:102F4000F0902B06E06402702271BC902EB1E07FFD
:102F5000AB60027FB991A8B15C902EB1E0902B05D7
:102F6000F070047F1EDFFEE4FFD13D221223707853
:102F700008122330E4221223707810122330E42246
:102F8000902EAFE014F0E022F11F91C2EF6004F147
:102F90000B80F722F0902AF8E0FFF42274FFF5F09E
:102FA00012215F45F022EFF07F01EF600A1234B486
:102FB000E4FD123C5F8009F1C3124F57E433FF2256
:102FC0007F0122F1CEEF70051234C680F622E4FFB5
:102FD00012365A54F0FEBE40037F00220FEFB403B6
:102FE000EF7F0122E4FFC13DE5C85404FF22E475F0
:102FF000F0010221491223E1EF0220AE902AFAE00B
:103000001220AE902AFFE09000011220C0902B0009
:10301000E09000020220C07A2A79FD7F03F12D7A28
:103020002B79067D017F081219D57A2B79037F0948
:1030300031D47A2B79017F0B31D4902B01E0FEA3A0
:10304000E0FF4E6006BEFF1BBFFF18902B06E0247A
:10305000FD600304700431DB8009902B01E4F0A3D0
:103060007440F0902B06E024FD6003047008902A61
:10307000FE7403F08006902AFE7402F0902AFDE0B0
:10308000122490309F0430A41430AC1530B41730A3
:10309000CA3030D23430DA3630E237000030BF1276
:1030A0005E73804775FF015350EF800E75FF01532B
:1030B00050DF800675FF0153507F8550C9802C7505
:1030C000FF015351DF8551CA802175FF015352FE24
:1030D000801675FF015352EF800E75FF015352BFEA
:1030E000800675FF0153527F8552CB122D5C7F11F4
:1030F00031C6E4FF122F3C122C1F902AFB7402F001
:10310000902AFFE0247F600904701631CC740A8095
:1031100007122EF131CC7458F0902AFE7403F0316E
:10312000DB902B00E0F4600221C3902B03E0FEA3B0
:10313000E0FF64104E7006902B00740EF0EF6420D8
:103140004E7006902B00740FF0EF64404E700690A6
:103150002B007410F0EF64804E7006902B007411F9
:10316000F0E4B5070AEEB40106902B007412F0E407
:10317000B5070AEEB40206902B007413F0E4B5070D
:103180000AEEB40406902B007414F0E4B5070AEEBE
:10319000B40806902B007415F0E4B5070AEEB410DD
:1031A00006902B007416F0E4B5070AEEB4200690E2
:1031B0002B007417F0E4B5070AEEB44006902B001C
:1031C0007418F0022ED4EF4420F5FE227F1031C691
:1031D000902AFB227B017D020219D5902B017401FC
:1031E000F0A3E4F02211171254E21219C1124A7628
:1031F0009002B3E064017F0060027F01121A251281
:103200001A2A121999125E2C7A0279B6121962F1F1
:1032100025FE4FFDA3E0FC4DFDA3E0FB4D600BEE52
:103220005FFFEC5FFFEB5FF47002D1B690121CE021
:10323000FF540324B6F582E43402F583E06F900274
:10324000B1F02275FF0275E404E4F5E4C22675FFCF
:1032500002901215E0603CE5E654036401703412FC
:103260001A4D124E2D4020901222E0600DE014F015
:103270007008122A90E4901215F0901215E0700276
:10328000610A12419E610A122A90D226E490121518
:10329000F08077122A901255329002B3EFF090121C
:1032A00000E0B47A14901214E0B49C0D9002B3E0E4
:1032B000FF64056004EFB4032EE49002BCF09002BA
:1032C000BCE0FFC394405013E42FF582E43412F5C0
:1032D00083E4F09002BCE004F080E3901200747A82
:1032E000F0901214749CF01219DA7B017A127910A2
:1032F0007D017F011219D57A1279117F21F12D7A82
:103300001279127D017F221219D5121A52125532EA
:103310001248D89002B3EFF01219CB1248939002E2
:10332000B3E0FFB40602800C3026047F02800590D3
:1033300002B3E0FF121A98EF24FFB3923B75FF022D
:1033400053E6BF9002B3E064016005E4901215F00B
:1033500012491F121A5731E5901215E0700F203BE9
:103360000C121A9D7B017A27790E121A0C90121DED
:10337000E030E00280033026057F01122FAAD2AF91
:10338000303B75124A58124BCD121AA21219D04076
:10339000F29002B2E0603FD178EF7004F1D3403692
:1033A000E51470FCE51520E503124F5712195DEF87
:1033B00070FAF1C15004F1E650057F01122F3C90E4
:1033C00002B2E0B40204E4FF80099002B2E0B40368
:1033D000057F011241BB91C6E51530E1A6D18940B8
:1033E00002E4F0E51520E50791B47D01123C5F9001
:1033F00002BC91B7D1A5808B1248201247EE500233
:10340000D1B69002B2E0605B9026A4E07055D1780E
:10341000EF7004F1D3404CE51470FCE51520E50A8B
:1034200090121DE020E003124F5712195DEF70FA61
:10343000F1C15004F1E650057F01122F3C9002B219
:10344000E0B40203E480189002B2E0B403047F0108
:10345000800E9002B2E0B4050A9012157401F0FFDC
:103460001241BB124A58124BCD121A899002B0E099
:10347000700491C6801512485FFF9002B0E0FEC351
:10348000EF9EC394064002E4F0D2AD121807E51592
:1034900030E119D1894002E4F0E51520E50791B447
:1034A0007D01123C5F9002BC91B7D1A5121A3E1269
:1034B000487E61F89002B4E075F0AA9002BF122332
:1034C000D5AF82AE8322E4900449F1B975F0E5E509
:1034D0005AD15E54F064407002C11AE4FE75F0E502
:1034E000EED15EFDB4010990044AEEF0E4FF8022C3
:1034F000EDB4020B90044AE0B4FF04EEF0800E75C8
:10350000F0E5EED15E54F0FDBD80027F010EEEB419
:1035100003CBEF600690044A74FFF090044AE0F495
:103520007002C11A124F865002C11AE51530E1022D
:10353000C11AD1669000041223D5E030E40A90004D
:10354000061254F4E0549FF0D1669000B81223D5CF
:10355000E0540FFEBE05099000BCD19EE030E11A98
:10356000D1669000031223D5E020E52775F0E5EF42
:103570009000BB1223D5E0B4FF1990044AE0D1AD0E
:10358000C083C082E04401FFA3E0D082D083CFF0AB
:10359000A3EFF090044AE0FDD1ADE0FEA3E0FFC050
:1035A00006C007ED75F0E5A424B3F9740035F0FA10
:1035B0007B01C002C001D1669000D91223D5E090F2
:1035C000042CF0EF75F0E5A42409F9740035F0FA45
:1035D000A3122418D1669000B21223D5E0900430D3
:1035E000F09000DAD19EE0900431F0E4A3F0D00135
:1035F000D002D007D0061239EA501F90044AE0F5F5
:103600005A75F0E5D15E4440F09004497401F090A1
:1036100022A2F0E51530E202D322E51530E2347F34
:1036200004D16F75F0E5E55AD15EFF54F064407047
:103630001D75F0E5E55AF1B1540FF075F0E5E55A66
:10364000D15E4480F0E55AF13712199480057F016C
:10365000122FAA900449E024FF2275F0E5EF9000B4
:10366000011223D5E02290044AE0FF75F0E522C262
:10367000AFEFF45215D2AF22E4FFD15A60037F00BE
:10368000220FEFB403F47F01227F02D16F9002B4C6
:10369000E09002BCF09002B404F0C394022275F0F2
:1036A000E5EF0223D59002B5E0FD0219BC75F0E507
:1036B0009000050223D5E4FF122FAAEF60437B019F
:1036C0007A0279B6F1029002B6E0C394C040EF7B73
:1036D000017A0279B8F102F1255FFFA3E05FFFA351
:1036E000E05FF460EA90121DE030E0057F01122FE8
:1036F000AAE490121CF07B017A0279B6E0FD12195F
:10370000672290043F122418C23CE4FF122FAABF84
:10371000010B90043F1223E112449B923C7F011263
:103720002FAAA23C229002B6E0FFA3E0227B017DFB
:10373000011219D57B012275F0E5A42401F974006A
:1037400035F0FA7B0122900447EFF1B9FEFD75F0E8
:10375000E5EDD15EFC700C900448E0B4FF02EDF0A2
:103760000F8006EC30E0027E010DEDB403E0900422
:1037700047E06401600DEFC394025007EE7004A3AC
:1037800074FFF0900448E0FFC39403501DEFF1373D
:103790007DE5E4FF121958900447E04410FFA3E0D0
:1037A000FE75F0E5F1B1F0EE808D7B007A007900D6
:1037B000229000011223D5EF22F0A374FFF0E4FF62
:1037C00022900001740193B40007E493B41802C37B
:1037D00022D3229002BDE0FEA3E0FF124FB8D3EF48
:1037E00094C8EE9400227F017E009017FCE4935E63
:1037F000FE7401935F4E24FFB32275F002A424806F
:10380000F9740F35F07B02FEAF01E4FCFD022E4996
:1038100075F002A42480F9740F35F07B02FEAF012D
:10382000AD4EAB05E4FCFD902D89EBF0022D0AFEB8
:10383000AF017B007A007982902D317404F0902DD5
:103840002E115DC007902D2E1223E1902D31E0FF47
:10385000902C11E4F0A3EFF0D007022E861224186A
:10386000E4FCFD22902CB7115DC007902CB7122309
:10387000E1902CBA125C70D007902B7012239890B4
:103880002B741224183188902B7712409B902B7048
:1038900012237012400150022139902B02E0902B2C
:1038A00001318EE4FCFD902B7012238C1222F790D4
:1038B0002B79EEF0A3EFF04E6032313BFFC3902B3B
:1038C00002E09FFF902B01E09EFE902B79F0A3EF8A
:1038D000F0902B77125E84500231983143E94A60B0
:1038E00005313BFF80467E007F008040902B77E0D3
:1038F000FEA3E0FF4E6040902B01E0FCA3E0FDD36F
:10390000EF9DEE9C400A902B79ECF0A3EDF0800D3A
:10391000902B77E0FFA3E0A3CFF0A3EFF03143E9D2
:103920004A6005313BFF80047E007F00902B75EEDE
:103930008FF012214980B5D322C322902B79E0FE6B
:10394000A3E022902B741223E1902B79E0FFA3E0F7
:10395000902C08CFF0A3EFF0902B70122370122D53
:10396000D7902B79E0FEA3E0FFC3902B78E09FF087
:10397000902B77E09EF0902B7012238CE4FCFD12CC
:1039800021BF902B70122398902B740223E124FF07
:10399000FFE034FFFE22EFF0A3ECF0A3EDF0229065
:1039A000043C3196751401E4FBFDFF719B7B017AA9
:1039B00004791671FEE4FD7F02F17E125E619004CF
:1039C000167455F090043CE0900417F090041474C1
:1039D00002F090043EE090042530E507E4F0A37483
:1039E0003CF022E4F0A374F0F022900427EEF0A360
:1039F000F1F3C2EBE5146002617DE51530E202C32C
:103A000022124F1F5004C243911DD191F5D1E5D12F
:103A100020E0FBE4F510C226900428E05407C3948C
:103A200003E494005022900430E0FF90042CE02F37
:103A3000FFE433FED3EF9440EE648094804009436A
:103A40001504A22592EDD32290042D1223E1CFE993
:103A5000CF8A118F12900430E0F516AE111256196C
:103A600071CF8B1C8A1D891E90042CE0F51F9004D9
:103A700027E0FCA3E0FD5460602E900431E0FF31AC
:103A80009F718BFB7A00900425E0FEA3E0FF7C0091
:103A90007D171220E2EF2BFFEA3EFEEF2414FBE439
:103AA0003EFA7D027F016164900427A3E0540790F1
:103AB0000414F075140871CF71FE90042CE0FFAD72
:103AC00016F17E900414E06403702B7B01FD718875
:103AD00071DD500E71CFE92407F9E43AFA7401124E
:103AE000208CE4F5FF125E8E718B2428FBE433FA00
:103AF0007D03E4FF806E900414E064027019718508
:103B000071DD4002910B125E61718B2414FBE43372
:103B1000FA7D027F01804DE4718571DD4002910BD9
:103B2000E4F5FF71D544104E7F0560027F0AEF5423
:103B30007FFFE5D254804FF5D2E4F5FF43D2807188
:103B40008BFD7C0071D544104E7E0060047F0A809E
:103B5000027F05EF25E0FFEE33FEEF2DFBEE3CFA92
:103B60007D017F0112542471D5FF1250884006A2B6
:103B70002592EDC322A22592EDD2EBD322A225926B
:103B8000EDD2EBC322FB7D01FF719B900429122330
:103B9000E1E92407F9E43AFA022046E4F5FF75D199
:103BA00002E5D120E0FBE4F5FFF5D1EF6008E4F594
:103BB000FF43D2808006E4F5FF53D27FEB6006E43A
:103BC000F5FF43D104ED6006E4F5FF43D1082290F0
:103BD00004290223E1900427E0FEA3E022FF9004E1
:103BE00030E0FD90042CE02DFDE433FCED2401FDDC
:103BF000E43CFCD3EF9DEC6480F874809822E4F5FB
:103C0000FFE9125610EA540F42D6229004291223DB
:103C1000E1E92407F9E43AFA74FF02208C902EB40B
:103C2000E5F4F0E0547FF5F47F827E00F16DF1A1C0
:103C30005005E5FC20E6F7304308902EB4E04480C0
:103C4000F5F4F169F1A15005E5FC20E6F775FF01F7
:103C5000E5D520E702C322E5F4D330E601C3229084
:103C60000439EEF0A3EFF0E514706D124F17500415
:103C7000C243911D900439E0FEA3E08E11F512AE0F
:103C800011AF127DAA1255EFE4F5FF75D901F510B9
:103C9000E5155421602BE51530E504E4FFD171E40E
:103CA00090043BF090043BE004F0124D54EF6009A7
:103CB00090043BE0C3941040EB7F02121A9353151B
:103CC000DE900413E07F00B403027F01D13ED243B3
:103CD000911DD2EBA22592ED22C0E0C0F0C083C0BE
:103CE00082C0D075D008C0FFF1AC8F18E51864020F
:103CF0007050E51424F8604024076002C13190043C
:103D000025124CE27028AB1CAA1DA91E71FEAD162F
:103D1000AF1FF17EE4FB7D01FF719B75FF00125E1A
:103D20008E43FA0475FF00D146751408C13143FA79
:103D30000475FF00D146C131C2EB75140043150470
:103D4000C131E51864016002C1311258D94002C185
:103D500031E510702B851282851183E090044BF0C1
:103D6000E0FF64556004EFB4540BD2261248619012
:103D70000424F0C10075100275FF0075D908C13127
:103D8000E51064027058125E55E090044BF0125832
:103D90006C1252F0900413EFF090044BE0FFD394B8
:103DA000094025900413E0D39402400CEFD394AA69
:103DB0007F0040027F01800D90044BE0D394407F50
:103DC0000040027F01EF6005125317803390044BCF
:103DD000E0FFF51675FF008FD97510038053E510CD
:103DE0006403704D12531775FF00900413E0C394E1
:103DF00003E5D350055402FF80035401FFEF600434
:103E0000D14D802DC243911D75FF00D194F5D1E5B0
:103E1000D120E0FBC2EB431502751000900413E0C3
:103E2000B403081516125E55E516F09002B5E516B6
:103E3000F0D0FFD0D0D082D083D0F0D0E032D1719A
:103E400043FA04E4F5FF53D1FD43D10122D18DF5AE
:103E5000D1E5D120E0FBE4F5FF75D901900413E032
:103E60007F00B403027F01D13ED243911DE4F510DF
:103E70002275FF01E5D530E602C322E4F5FF439A3F
:103E800080EF125EADE4F5FF539A7FD322C24391D7
:103E90001DE4F5FFE5D154FE440222902DD6EFF04B
:103EA000A3124760F075FF01F1ACEF64016002C33B
:103EB00022E5F430E602C3227FE87E03F1D6F16208
:103EC000F18B400122C243911D902DD6E0FFD171AC
:103ED00053F4DFD243911D7F787E00F11875FF0106
:103EE00053E4BFE5E430E7FB1254127F8AF1F93066
:103EF000E6061246F0E4800875FF011246F0E5D9A7
:103F00001220AE75FF0143E4401247E6400343F43C
:103F100020F18B400122D322CDEFCDCCEECCF1723B
:103F2000AB94EF4B125EB5CBEFCBFAE59130E71DCA
:103F3000F175A994E9F582EF4582FFEB2DF582EA50
:103F40003CF583C3EF9582E5F0958340DEE5912053
:103F5000E709CEECCECFEDCF12472E227FC87E00F0
:103F6000F1D675FF03439180227FE87E0312477FDD
:103F700080F075FF03AF93EF75F010A4FF22E4F516
:103F8000FF8FD4F5FFCFEDCF8FD522E5F730E50FCA
:103F9000E5F754C07004F1A140F1124759C322D390
:103FA0002275FF03E591C330E701D3227FFAF15E6A
:103FB000E5FC30E604F1A140F7E5FC30E6037F03C1
:103FC0002275FF01E5D530E6037F0222E5D57F00AB
:103FD00030E7027F012275FF03D3EF9402EE9400D5
:103FE000400874FE2FFF74FF3EFEEFF592EE540F73
:103FF000F59122EFF0A3022418FEF11890120FE0C1
:1040000022902A18122398902A1C122418E4902A2D
:104010003FF0D3902A20E0941E902A1FE0940040A5
:1040200001227B017A2A7921902A1FE0FFA3E090E8
:104030002C11CFF0A3EFF0902A18122370122E86C5
:10404000902A1C1223E1E94A600F902A3FE0F58292
:1040500075830012205FFF80027F00902A3FE024DA
:1040600021F582E4342AF583E06F6002C322902AAE
:104070003FE004FFF0D3902A20E09F902A1FE094B5
:104080000050BD22902CBE12385DC007902CBE128D
:1040900023E1902CC1119BD0070101E0FFA3E09028
:1040A0002A1FCFF0A3EFF022E4F97D0CAC0109EC5C
:1040B00090181F93FC0FEFAA0670010E14F5828A68
:1040C00083ECF0DDE77F03228F828E83E4F0A3741C
:1040D0000411DB743611DBA3E4F022F08F828E83AF
:1040E000A3A32275FF0275E40475E40175E40222BE
:1040F00075FF0275E404E4F5E42290043331E4EB47
:10410000F090121DE05430600631E15002C322905D
:104110000433E0B4040BA331639004337403F080E0
:1041200025900433E06405701890121DE09004346B
:1041300030E50631637F1F8004316BE4FF31D980A5
:1041400005900434316B900433E09002B2F0900497
:1041500035E0901222F0124F9D9002BDEEF0A3EFD9
:10416000F0D322E0FB7D017F018006E0FB7D01E4CE
:10417000FFEB600875FF0153CDFD800675FF01431D
:10418000CD02ED600553FBDF800343FB20EF6007AA
:1041900075FF0243E1402275FF0253E1BF229012F6
:1041A0001DE07B027D0130E5087F0131717F1F80BA
:1041B00006E4FF3171E4FF31D97F0143FB1075FF45
:1041C0000243E640EF600D75FF02E5E120E7FB43A7
:1041D000FB0D800343FB0E80FE75FF028FE3228000
:1041E000F8A22622EFF0A3EDF0A322902CD131E427
:1041F000EBF0902CD77401F0C242123F69123FA13C
:104200005005E5FC20E6F6123FACBF0108E4F5FCE2
:1042100075FC408008123FACBF0202D322F1DF9050
:104220002CD2E0FF12583775FF0153D5DF53FAFB4C
:10423000902CD1E0FF123E71902CD2E0902CD1B4A2
:10424000080851F224529190800351F2FFD1A390BB
:104250002CD3E0FFF1D975FF0175FF03759B0412A4
:104260003F6975FC42E5FC20E105123FA140F39057
:104270002CD4E0F075FF03E59B20E705123FA14039
:10428000F3E59B20E70C75FF03759B1FF13DD242C0
:10429000804DD19CD1FC902CD2E0FD90120FE05DBE
:1042A000701C902CD1E0FFD19C1250D190120FE0E5
:1042B000FF902CD2E0FEEF4E90120FF0915F124D66
:1042C000387B017A2C79D5F168500FC3902CD6E059
:1042D0009420902CD5E0940340E7D19C125652F1E3
:1042E0003430420221F2902CD7E0B40103D3800194
:1042F000C322E025E025E02401F582E43412F583B1
:10430000E0FCA3E0FDA3E0FEA3E022902A861223B6
:104310009875FF0243E180F13DF1B1902A9B122391
:10432000A4002DC6C0E4F5FFF5A490120EF0A3F092
:10433000902A967402F0D1DFFFF595EF14601814FF
:10434000602624027036902A867100FF902A971208
:104350002398902A928020902A8A7100FF902A97B1
:10436000122398902A93800F902A8E7100FF902A32
:1043700097122398902A94E0902A9FF012582A903E
:104380002A9FE0700FF5FFF59675FF0175D7097547
:10439000F418805990120EE004F0902A96E0125E14
:1043A000AD902A9B7100FF902A97D191FBC31223F5
:1043B0001F500A902A977100FFA3122398902A9FFA
:1043C000E0FF1256AB902A95E0FFA3E0FDA24192D8
:1043D0003F1257D8A37100FF902D95122398902A71
:1043E00096E0FFB1E4902A9651F2FFD1A3D1E760A5
:1043F0000261367402F0D1DFF595E5F45407701DC3
:10440000902A9BD18CFB91817801122330902A96BF
:10441000D17EF583122398EB51F3FFD1A3D1E7703E
:10442000D575FF03759580F1E6400343F420A24162
:10443000924012570A902A9B71002420FFEE344EBE
:104440009193E4FB7A04F9F891817801122330C248
:104450003E124AC8E4F5FFE5BD54F84404F5BD90AA
:1044600012137401F07E127F01E4FDEF2DF582E45A
:104470003EF583E0FC901213E02CF00DEDB412EB4E
:10448000221221DAE47B7DFAF9F8122265EF240189
:10449000FFE43EFEE43DFDE43CFC22902B7BF1601A
:1044A000F0902B811223A400000001902B85740151
:1044B000F0F5FFE5D554C07005124F1F5002C3221E
:1044C000E4F5FF53967F75FF0175D504F12B75FF59
:1044D0000143D508E4F5FF5394FBF5FF53847FF5C2
:1044E000FF7598FF902B7FE5F4F075F49C75FF0144
:1044F000A3E5E4F075E4257B017A2B7985D1FC9066
:104500002B85E064016002A1C2F5FF902B7E74143C
:10451000F0902B817100FF7801122343902B8112C0
:104520002398E5A730E1FB43A702902B817100FFA0
:10453000E5A730E005E47B018002E4FBFAF9F8EF3F
:104540004BFFEE4AFEED49FDEC48FC902B81122317
:1045500098902B7EE014F070B8902B817100FF785A
:10456000101223307B6D7A4E79C678411221DAEF32
:104570002439FFEE34309193E4FBFA7901F81222EA
:1045800065EE547FFEE4FDFC1252A7902B81710072
:10459000FFEB6FFFEA6EFEE8CDEFCDCCEECCECFF8B
:1045A000902B7BD1F3EF1220AE902B7BD1F39000B8
:1045B00001ED1220C090120FE030E606E4F5FF7521
:1045C000968075FF01E4F5D5902B7FE0F5F475FF3B
:1045D00001A3E0F5E41256F9902B85E0B40103D372
:1045E0008001C322902D94EFF0E4A3D18CFB918144
:1045F0007801122330902D94D17EF5831223989068
:104600001210E0FF64806075EFC3947F503AEBD1E5
:1046100080F583C083C0827100FFEEC0E0EFC0E090
:10462000901210E075F004A4AEF0FBCAEECAEA33B3
:1046300095E0F9F8D0E0FFD0E0FEC3EF9BFFEE9AE3
:10464000FEED99FDEC98802D902D94E0D180F583BE
:10465000C083C082D191FB901210E0F40475F00485
:10466000A4FFAEF0EE3395E0FDFCEB2FFFEA3EFE3B
:10467000E93DFDE83CFCD082D08312239822E0FB88
:1046800025E025E02401F582E4341222FF7E04FDBA
:10469000FCE0F8A3E0F9A3E0FAA3E0227B017A2C86
:1046A00079D722902DCA12239875FF01902DCAA3A5
:1046B000E0FDA3A3E4FFFEE4FC78101223308FE1B9
:1046C000902DCAA3A3E0FEA3E4FFE4FDFC7808124A
:1046D00023308FE2902DCAA3A3A3E0FF8FE32275BE
:1046E000FF03902A96E022902A96E0FF14F0EF2232
:1046F000902DD7E0FBA3E0FAA3E0F922902E32F14F
:1047000060F07F017C127D01E4FEED2EF582E43C39
:10471000F583E02FFF0EEEB412F0901213E06F60FD
:1047200009902E32D1F3E41220AE227F3FFE123FD9
:10473000D6123F6275FF03E59120E7FB22E5FA30D0
:10474000E1FB75FC8075FF0153D5EFE4F5FC75FCCA
:1047500040F159E5FC20E6FB2275FF03E4F59122C8
:10476000EBF0A3EAF0A3E922123F72AD94EF4D12F1
:104770005EB58FF01221A0E591C330E701D32290FE
:104780002DC6EEF0A3EFF07B017A2D79C8F16850C9
:1047900014902DC8E0FEA3E0FF902DC7E09F902D60
:1047A000C6E09E400B902DC6E0FEA3E0FF123FD670
:1047B00022F1CF53DB7F75FF0175D5027F14123FC5
:1047C0005EF134F1CF43DB8075FF01E4F5D522754E
:1047D000FF01438E1075FF012275FF018FDA2275EC
:1047E000FF0153D8EF2290120EE0D39401229012D1
:1047F0001CE070111237254FFFA3E04FFFA3E04FDD
:104800007003D38001C3229002B1E064AA2411FF97
:10481000F022AE071107EE04FEEF8EF084AFF02217
:10482000303A0C9026A4E07006FF121A34C23A11F6
:10483000340219C630262011619004241158400A10
:10484000EF9ED394024010C22622900424E0F42F5D
:10485000D394014002C22622FFE0FEEFC39E22C293
:10486000AD90298BE0A3E0229002BAE0FCA3E04CDB
:10487000700A9002BAEEF0A3EFF0D322C3229002A6
:10488000BAE0FEA3E0FF4E6009CAEECAC9EFC91242
:1048900024B622E4F553F554F555F55675FF018518
:1048A000FD4F75FF0185C95075FF0185CA5175FF20
:1048B0000185CB5222EF11BCF0020000901221F0D2
:1048C000902EB322901221E0FFF46005902EB3EFFA
:1048D000F074FF11BCE0FF22901221E0FE6406900C
:1048E0002EB36004EFF08008EEF090122174FFF018
:1048F000902EB3E0FF22EFB40109D2AD75FF014362
:10490000AE4022C2AD75FF0153AEBF2275C8012271
:10491000E5C85402FF75C80222E5C85401FF22759C
:10492000FF02D2ADD2BD75FF02758E717557097544
:10493000FF02E58E546F4480F58E22C0E0C0F0C0C7
:1049400083C082C0D075D008C0FF75FF02E58E30ED
:10495000E42975FF02E58E54EF4410F58E900000B7
:10496000E004F0E55730E002052DE557700B755770
:104970000990298B122FEF8002155775FF02E585EC
:1049800030E40431940558D0FFD0D0D082D083D009
:10499000F0D0E03275FF024385102231BA3194C263
:1049A00031E4F558C2322230310F31BA3194E4F596
:1049B00058D23275FF024385802275FF0253857FEE
:1049C00022AB07AA0631BA3194ED4C70050DBD003B
:1049D000010CD3ED94FFEC9403500AEDF586EC4402
:1049E00030F5858052D3ED94FCEC940F5017EDAE6A
:1049F000047802CEC313CE13D8F9AC06F586EC4486
:104A000034F5858032D3ED94F0EC943F5016ECC42D
:104A1000F854F0C868FCEDC4540F48F586EC4438EF
:104A2000F5858013EDAE047806CEC313CE13D8F906
:104A3000F586EE443CF585902E835150D232E4F554
:104A40005875FF0243854075FF02438580D23122AD
:104A5000AF03EAF0A3EFF022303213E558600F15F0
:104A600058902E83E0FEA3E0FF4E6002516F22AA11
:104A700006A9070224B6E4F558C23222902D8BEC29
:104A8000F0A3EDF0AA07AF03EF70010FEF75F00A86
:104A9000A4FFAEF0EA918151C0EA71BFEEF0A3EF3E
:104AA000F0902D8E71B5243DF582E43429F583EF25
:104AB000F0902D8BE0FEA371B5243BF582E4342900
:104AC000F583EEF0A3EFF022902AA0122398E4F5EC
:104AD000FF75BB0575BB8575FF0175D502203E05C9
:104AE00012472BB13875FF0143D520303E0261904B
:104AF000E4F5FF538EF7438E077D04E4F5FF8DBC8C
:104B0000F5FF43B102E5B130E2FBE4F5FFAFDFEFC3
:104B1000FEACDEECFBEBFFED25E0249EF582E434F9
:104B20002A51C0E4F5FFF5FF53B1FD0DEDB40CCBF8
:104B3000902AA0124300FF7809122330A3EEF0A3BD
:104B4000EFF0E4FDED25E024A8F582E4342AF583B6
:104B5000E0C313FAA3E013FB71AAF583E0C313FECD
:104B6000A3E0132BFFEE3AFE71AA51C0ED2404908E
:104B7000120DF0EDC394075017CFEDCF0DEF71ABD1
:104B8000912FFFC3902AA5E09F902AA4E09E50B4E5
:104B9000E4F5FF758EC8F5FF90120DE0F5BCE4F565
:104BA000FF75BB8075FF01F5D522ED25E024A6F544
:104BB00082E4342A22E0FFEA75F007A422E5597561
:104BC000F007A42437F582E43429F583229000000D
:104BD000E0604EE014F0E4F559E559C3940C50ED53
:104BE00071BDE0FEA3E04E603471BD91E2702E9184
:104BF00036FF6007F46004913614F09136600EE5DC
:104C0000599181912FFF71BDEEF0A3EFF091224EEB
:104C100060089122AA06F91224B6122F0B055980BA
:104C2000B822E55975F007A4243BF582E43429F550
:104C300083E0FEA3E022E55975F007A4243DF58248
:104C4000E43429F583E022902D8FEEF0A31241E4A5
:104C5000EBF07FFFA3E0F9E9C3940C5022E971BFA8
:104C6000E0FCA3E04C7015AF01902D8FE0FC91DBD0
:104C7000A3E0902D8EF0517CE904FF220980D82218
:104C8000EF75F007A42439F582E434292291BC5051
:104C9000109180F583E4F0A3F0EF71BFE4F0A3F08E
:104CA0000EAF062291BC50119180F58391D460091A
:104CB000EF71BFECF0A3EDF00EAF0622E4FE1FEFA4
:104CC000C3940C227E1A7FD47BFF7D64902D937455
:104CD00002F08147E0FCA3E0FD4C22A3E0FDA3E04D
:104CE000FB2274FFF5F012214945F022122046FF05
:104CF000918DE40220AE902CC3122418B12791ECC0
:104D0000AE04AF05902CC8E0FDA3E0FBB131902CC0
:104D1000C3122FF5B127122046B4FF04E41220AECF
:104D2000B127122046FF22902CC30223E1E4FB7D31
:104D300001E4902D93F08147E4F5FF75C2E17F1EF9
:104D4000123FF930E707E4F5FF75C2A122E4F5FF51
:104D500075C28122E4902DCEF0A304F0E4902DD111
:104D6000F0E5FA30E1FB75FF01E5D530E7037F00A0
:104D700022E4F5FF75E5081247DFE5D530E61A7540
:104D8000FF01902DD0E5DAF0E4F5DA75FF01E5D604
:104D900030E3FB902DD17401F075FF03759B047512
:104DA000FC4175FF03E59B30E7FBE4FB75FF038BDC
:104DB00095EB1242F3FF1246A30BEBB403EE75FF23
:104DC00003759580E4F5FF758EC8B13875FF015302
:104DD000D5FB1247597F14123F5E12473475FF010D
:104DE00043D504902DD1E07009124759123F5C124F
:104DF00047347B017A2D79CF125652902DCFE09017
:104E00002DCE7006E04404FF8002E0FF902DCEEF2F
:104E1000F090120EE0B4010675FF0143D81075FF43
:104E200001902DD0E0F5DA902DCEE0FF225315FE53
:104E3000E51530E5057F01123E71B154EF70FB7F3F
:104E400002121A937F01D18790044CEFF0BF020247
:104E5000801390044CE0B43311E4F07F01D187BF9C
:104E6000020D90044C7401F08005E490044CF09025
:104E7000044CE0700BF11F5005C243123C1DF14F72
:104E800090044CE024FF22900445EFF0C244F12747
:104E9000D233900445E0902E35F0D234A3E4F0A351
:104EA000740DF012532CE4900446F0F11F503E9024
:104EB0000446E07038E5F754C060F0F104F1049066
:104EC0000446EFF0BF5512F104900446F1486F908C
:104ED000044670147402F080D2900446E0B4540585
:104EE0007433F080C69004467401F080BE9004468E
:104EF000E0B40207C243123C1D800012531F90040D
:104F000046E0FF22E5F720E008E5F754C070F5FF22
:104F10002243F701AFF922C2EBA2ED9225C2EDE5E3
:104F2000F4C330E701D322AFF4EF547FF5F43044FB
:104F300005EF4480F5F475FF01E5D520E702C322B3
:104F4000E5F4D330E601C322EFF090121CE0221208
:104F5000473D7F08021A93E5147024F1175005C2EB
:104F600043123C1DF14F123E91F5D1E5D120E0FBFB
:104F70004315205315FEE4F510A22592EDD322C36C
:104F800022E4F51480D1F11F5004F196400330263D
:104F900003D38001C322E5F754E024FF22A2AFE44B
:104FA00033FFC2AF90298BE0FCA3E0FBAA04EF24FF
:104FB000FF92AFAE02AF0322902E85EEF0A3EFF08A
:104FC000F19D902E85125E845009C3EF9DFFEE9CEB
:104FD000FE8019902E85E0FCA3E0F4FDECF4FCEDDE
:104FE0002401FDE43CFCED2FFFEC3EFE22AF14EF6C
:104FF000C36001D322EFC3940E5005900415EFF067
:1050000022E517540FFF22E517C394F0501F5317E2
:10501000F01130FE740FC39F4005EE940E4005431F
:10502000170D8003EF4217E517540FFF227F002270
:10503000E517C4540FFEEF902B1E932E221130FF64
:10504000C3940E40027F0DEF902B0093FF22EF30B0
:10505000E303AF1322AD1B202704EE30E00BE5176E
:10506000C394F0502011A08018E51A6006FDE4F505
:105070001A8012E517C394F0500BE517540FFF6028
:1050800004113DAD07AF05224315015315DF114E45
:1050900051564004E4F514225315FB123E40D3222E
:1050A000900415E0FDFFC3740E11CAEFC4F8540F4D
:1050B000C868FFEEC454F048FEE51754F0C39FEEF5
:1050C000123BF77F005002AF05229FFFE49400FEE1
:1050D00022902DD2EDF0901211E0FEF46006A3E0D4
:1050E000FDB4FF0C902DD47418F0A37413F0800855
:1050F000902DD4EEF0A3EDF0122046640160024141
:1051000029902DD2E0FE64086004EEB40408902DCE
:10511000D37428F08006902DD3743AF0EF1242F346
:10512000FF122311E45131EF24D8FFEE343FFEED9E
:105130003493FDEC3416FC7B007A807903780012FE
:1051400018B651A7902DD5E0FF902DD4E0C311CA19
:10515000E4FCFD1221DAECC0E0EDC0E0EEC0E0EFCF
:10516000C0E0902DD5512A5131D0E0FBD0E0FAD0EB
:10517000E0F9D0E0F8EB2FFBEA3EFAE93DF9E83C34
:10518000F8902DD3512A1221DAEF2454FFEE340B7C
:10519000124493E47BA87A16F9F81218B6CBEFCB39
:1051A000902DD2E014605D14601B24FE600C24FC82
:1051B0007077E4F5FF75CE318006E4F5FF75CE21FA
:1051C000F5FF8BCF22E4FAE4F5FFEA2440F5CEE4C4
:1051D000F5FFEAFFC3740711CA74432FF5827418F0
:1051E0003EF583E45139C39DF5CFE4F5FFEA244849
:1051F000F5CEE4F5FFEA90184351392DF5CF0AEAD0
:10520000B408C422E4F5FF75CE01F5FF8BCFF5FF9E
:1052100075CE0EF5FFEB25E0F5CFE4F5FF75CE0F6B
:10522000F5FFEB75F003A4F5CF22E0FFE4FCFDFEF3
:10523000227B64FAF9F80221DA9325E0FDE433FCDD
:10524000EB75F010A4FFAEF01220F4CDEFCDEBFF24
:10525000E4C313EF1322900437EFF0900414E0241A
:10526000FD6011047007519D7404F08012519D740B
:1052700008F0800BE4900438F09004367402F07F5C
:1052800001121A93900438E0FF900436E0FDA3E089
:10529000FBE4902CD4F01241EB50E9D32290043877
:1052A0007401F090043622C8ECC8C9EDC9CAEECA30
:1052B000CBEFCB22E51754F0C4540F2FFFC394104B
:1052C00040027F0FEF902B0E93FF227E10EE6009BD
:1052D0001EEE902B0E93B507F4EEC3940E40027EA3
:1052E0000DEE902B0093FF22C2AFEF4215D2AF22FA
:1052F000EF24FE600C24FE600580007F01227F0207
:10530000227F0322E51520E50A123E8DF5D1E5D175
:1053100020E0FBE4F51022302604C226711F22C2D1
:1053200033E4902E35F0C234A3F0A3F075FF01E50D
:10533000D520E702C322C244124F2720330261D690
:1053400053F4DF902E35E0FF123E7175FF0143D814
:105350001030340543F440800353F4BFE4F5FF53A9
:10536000F5F0902E36E0FAA3E0FBEA42F5EBF5F615
:10537000D244124F27123F5CE4F5FFE59320E60587
:10538000123FA140F330345CE5F430E3047D288023
:1053900010E5F430E2047D288007E5F430E1027D79
:1053A000281247597F28123F5E123FA140FB7F78A9
:1053B000123F5E123FA1502C71E650F7910DEFC3E2
:1053C0009D50F071E650ECE5F720E5E7C244124F3E
:1053D0002712475980DD53F4BF1247E6400643F4D5
:1053E000201247DFD32275FF01E5E43322E4FFE515
:1053F000F754C06002801675FF01E5D530E30D71EA
:10540000E650F4910DEF60EF71E650EB229112AF90
:10541000D92275FF01E4F5EA75EAFF22900425E040
:10542000A3E0FF22900442EFF0ED24FE6019146027
:10543000262402703BEB2402FFE43AFE7C007D5000
:105440001220E27D60801E919AC333CE33CED8F90C
:10545000FF7C007D28800E919AC333CE33CED8F9DD
:10546000FF7C007D641220F4900443EEF0A3EFF083
:10547000900442E091A5F583C083C08212238C90F2
:105480000444E02401FF900443E03400FEE4FCFD0A
:105490001221BFD082D083022398EB2401FFE43A8B
:1054A000FEEF78032225E025E02418F582E4340499
:1054B00022EF91A5F583122370022356E49004187D
:1054C00091D3E4FF90041C91DAFFFEFDFC900420D0
:1054D000022398FFFEFDFC022398FEFDFC12239898
:1054E000E422E4FF90000191F4E4F00FEFB403F440
:1054F000E4F55A2275F0E5EF0223D5E40220AE125E
:105500002046540F0220AE80F6EF7011ED60077553
:10551000FF0143AE012275FF0153AEFE22EFB4013D
:1055200010ED600775FF0143AE022275FF0153AE17
:10553000FD2275FF02E5E630E2037F0322E5E63057
:10554000E3037F0022E5E630E1037F0422E5E67F06
:105550000530E0027F0122EF600775FF0253E6BFCE
:105560002275FF0243E64022EF14600F14601424FA
:105570000270188B8075FF018DFD228B9075FF01E5
:105580008DC9228BA075FF018DCA22AF038FB07524
:10559000FF01AF058FCB22902CCB122418EF1460A3
:1055A000111460182402701EB1D1E580B1D7E5FD59
:1055B000801CB1D1E590B1D7E5C98012B1D1E5A089
:1055C000B1D7E5CA8008B1D1E5B0B1D7E5CB0220AB
:1055D000AE902CCE0223E11220AE75FF01902CCBB1
:1055E0000223E1E4F5FFAF9122E4F5FFAF9222E45C
:1055F000F5FF75D102E5D120E0FBE4F5D1F5FFEF31
:10560000D110EE540F42D6E4F5FFCFEDCF8FD42268
:10561000F5D7E4F5FF53D6F022E4F5FFEFF5D8E433
:10562000F5FF53D60FEE540FC4F854F0C8E4C45439
:105630000F4842D622E4F5FF8FD422E4F5FFE5D1EE
:10564000540133333354F8FFE4F5FFE5D354074FE7
:10565000FF22C23D75FF03759B1F75FF0390120F5C
:10566000E0FF20E71BE59A540FC394024012EF4479
:1056700080F0E4F5FF75C2A143FC0475FF03D23D41
:10568000E5FC30E609E59A540FC3940540CCE5FCEF
:1056900030E611E41220AE75FC80F5FC75FC40E5A7
:1056A000FC20E6FB303D0312445F22EF30E00E4366
:1056B000F401E4F5FF43A404F5FF759624EF30E10F
:1056C0000E43F401E4F5FF43A408F5FF759624EFBB
:1056D00030E20943F402E4F5FF75961EEF30E3096A
:1056E00043F404E4F5FF75961075FF01EF54036071
:1056F0000475D7122275D72D22E4F5FF7584E6F5DF
:10570000FF439404F5FF75981422E4F5FF75933F69
:1057100075FF03759A40D1F9E4F5FF759C93F5FF89
:1057200075A1A3F5FF758531F5FF758628E5FA5457
:10573000304480F5FA75FF0175E74A75FF0275DFA1
:105740004975FF0143D30475FF0153D367E4F5FFA7
:1057500053E6BF75FF0175D825F5FF75B503F5FF55
:1057600075B215F5FF75BA02F5FF75AFB3F5FF75A4
:10577000CD0AF5FF75CB08F5FF75CA12F5FF75BFA9
:105780000EF5FF75CC96F5FFF5BDF5FF75C281F5F9
:10579000FF75AEE1F5FF75DA55F5FF75F580F5FF9C
:1057A00075E903F5FF75E933F5FF75972A75FF0174
:1057B000759B42759CA4759D29759E48759F24759F
:1057C000A11275A312759AF820400CF5FF4396803C
:1057D00090120FE04440F022CCEFCCCFEDCF74011B
:1057E0007E00C8EFC8088005C333CE33CED8F9FF9A
:1057F000CDECCDEF5D601B303F1875FF0175DCAD62
:1058000075FF0175DDCDE4F5FF759A74F5FF7594AC
:10581000842275FF0175DC5375FF0175DD33E4F5F6
:10582000FF759A14F5FF7594042275FF0175E46500
:1058300075FF0175D6472275FF01E5D530E602C335
:105840002253FACFEFB4080543FA308012EFB404C4
:105850000543FA208009EFB4020543FA108000D313
:1058600022E5F45418131313541FFF22E5F75406CE
:10587000FFBF06037F0822E5F75406FFBF04037F3E
:105880000422E5F75406FFBF02037F02227F0122B4
:1058900075FF01E5D520E602C322E5FA540360FA5C
:1058A00075FF018FC3D322CEEFCE75FF01E5D52062
:1058B000E602C32243FA04E4FDEDC39E50077F5580
:1058C00011900D80F4E5FA543070047F0F80027F50
:1058D000F01190D322E5F71322E5F754C024FF22FC
:1058E000E4902A63F07B017A2A794A122FFC902AED
:1058F0004CE0FBB41122902A5F1223A40000780030
:10590000902A5B1223A400006000902A407418F0D3
:10591000A3E4F0A3F0A380277412D39B5027902A0E
:105920005F1223A400020000902A5B1223A400024D
:105930000000E4902A40F0A3F0A37418F0A3E4F070
:10594000902A6304F0902A63E0FB6017E4FFFE7D79
:1059500002FC902A4CE024EFF9F8122343902A44E9
:10596000122398AF0322902EADEFF0E4A3F0902A1B
:1059700063E0602131A67008319B7E777D00800A4C
:1059800091595011319B7EFF7D017C00122D0AE45C
:1059900033902EAEF0902EAEE0FF22902EADE09030
:1059A0002D89F07FFF22E4FFFE7D02FC902A441245
:1059B000238CC302231F902BED122418902BF0ECA4
:1059C000F0A3EDF0902A63E07002417731A6704DAC
:1059D000519131AF504751A4FDA3518BE4FB7A188C
:1059E000F9F8C312231F5035902BF212238CC3E415
:1059F0009BFF74189AFEE499FDE498FCE4902BEE6A
:105A00008FF0122149C3902BF1E09FF0902BF0E032
:105A10009400F0902BF21223A400001800519A5128
:105A20008B914351A4FD1221BF902A4491694042B9
:105A300091594024E4519131AF4037902BF0E0FE72
:105A4000A3E0FBE49BFF74A09EFE74019400FDE4C0
:105A50009400FCA331AF501A519A518BC007902B80
:105A6000ED1223E1902BF09170D007123879E433D6
:105A70008001E4902BF6F0902BF6E0FF22902A4272
:105A8000E0FEA3E0FFE4FCFD902A5F12238C0221DC
:105A9000BFFF7E18FDFC902BF222902BF212237098
:105AA000902A5B22902BF0E0FEA3E0FFE4FC229022
:105AB0002E7D122418517DEF24081244907A2A7901
:105AC00048910F7402F0122E86902A4851A7FD903B
:105AD0002A5B518B7A2A794D910F740EF0122E8623
:105AE0009118EE34801244939100902A4F91227FB6
:105AF0000F7E1D71F29106FFAEF0C006C00791182F
:105B0000E43E912F9100902A519122D007D0067146
:105B1000F29106FFAEF0C006C0079118EE348091F6
:105B20002F9100902A539122D007D00671F291064E
:105B3000FFAEF0C006C007517D9100902A4EE024D0
:105B400000FE902A4DE034E8902993F0A3CEF0D0E7
:105B500007D00671F2910645F0C37001D322902957
:105B60008DEEF0A3EFF0A3122370902995122398E5
:105B7000902993E0FFA3E0902999CF80669029991E
:105B8000E0FEA3E0FF4E6061C3EF9440EE9400405E
:105B900006A37440F0800590299BEFF09138FF91A7
:105BA00011EFF0902995122370122E8690299BE018
:105BB000FFC390299AE09FF0902999E09400F0901B
:105BC000299512238C90299BE4FCFDFE1221BF90A5
:105BD000299512239871E99138FD91501219DF909F
:105BE000298DEEF0A3EFF0809490298DE0FEA3E0E4
:105BF000FF22715E902E7D1223E1EE8FF00221A034
:105C000090298F022398902E7D1223E10221757B2B
:105C100001902C11E4F0A322902A5B122370E42F50
:105C2000FF22E0FFA3E0902993CFF0A3EFF022FE44
:105C3000ED3401FDE43CFC227B017A29799C90291A
:105C40009BE022A804A905AA06AB07227F0F7E1DB0
:105C5000902C82E4F0A3EDF022902A44122370E409
:105C6000FBFA7904F8D302231F12238CD302231FDB
:105C7000E0FFA3E0902B77CFF0A3EFF022902D7AF6
:105C800091B6E58F20E0FBB111538FF075FF01E471
:105C9000FF902D7A1223E18F8275830012205FF529
:105CA000930FEFB410EBE4FF902D7D1223E1B19937
:105CB0000FEFB410F32212241875FF0122902C5B11
:105CC00091B6E58F20E0FBB111538FF075FF017E97
:105CD00010902C5EB10712205FF593EE70F37E10EA
:105CE000902C5B1223E11E8E82B19BEE70F27F013D
:105CF000B1A4B1C2EF70FB7E10902C61B107E593A7
:105D00001220C0EE70F3221223E11E8E82758300F2
:105D10002275FF01538F0675FF0122902C6491B606
:105D2000E58F20E0FBB111E58F54F04402F58F754B
:105D3000FF017F10902C641223E11FB199B18A8F6B
:105D400082758300E41220C0EF70E9B190EA540F2D
:105D5000FDB18AEAC4F854F0C8E9C4540F4854F0BD
:105D60004DF592B190E9F59875FF01B18AE9F59684
:105D700075FF0175991075FF0175971075FF014347
:105D80009120B1B6E58F20E0FB22902C6A0223E13E
:105D900075FF01902C670223E18F8275830012202A
:105DA0005FF59422EFB40102800C75FF01E58F547A
:105DB000F04406F58F2275FF01E58F54F64401F596
:105DC0008F2275FF01E58F5401FF22902E8091B63E
:105DD000E4FF902E801223E18F82758300E59312F9
:105DE00020C00FEFB410EB2275FF01E58F54F6448D
:105DF00008F58F2275FF01E58F5408FF22EFB401EB
:105E00000775FF0143AE202275FF0153AEDF22EF7D
:105E1000B4010775FF014391202275FF015391DF03
:105E2000221223E1E92409F9E43AFA227B017A12E9
:105E3000791C902D350224181223E1E92405F9E498
:105E40003AFA2290000102205F902CEA02241812F4
:105E50002418022046E5122407F582E43511F58363
:105E600022E4F5FFE5D25480440AF5D222900003E3
:105E700002205F75FF01534FEF854FFD221223E192
:105E8000EA494B22E0FCA3E0FDD39FEC9E22E5D241
