:020000040000FA
:100000000203370218034100C4002202180B222207
:0100100022CD
:07001300021813E4FF81DD78
:07001B0002181B75C8012249
:030023000218239D
:03002B0002182B8D
:030033000218337D
:03003B0002183B6D
:030043000218435D
:03004B0002184B4D
:030053000218533D
:03005B0002185B2D
:030063000218631D
:03006B0002186B0D
:10007300021873BB010689828A83E0225002E722B9
:10008300BBFE02E32289828A83E49322BB010CE54F
:100093008229F582E5833AF583E0225006E9258239
:1000A300F8E622BBFE06E92582F8E222E58229F57D
:1000B30082E5833AF583E49322BB010689828A832E
:1000C300F0225002F722BBFE01F322F8BB010DE53B
:1000D3008229F582E5833AF583E8F0225006E92583
:1000E30082C8F622BBFE05E92582C8F222C5F0F8D4
:1000F300A3E028F0C5F0F8E582158270021583E0CD
:1001030038F022A3F8E0C5F025F0F0E582158270FF
:10011300021583E0C838F0E822BB010A89828A838A
:10012300E0F5F0A3E022500687F009E71922BBFEB1
:1001330007E3F5F009E3192289828A83E493F5F052
:1001430074019322BB010A89828A83F0E5F0A3F04C
:10015300225006F709A7F01922BBFE06F3E5F009C2
:10016300F31922EF2BFFEE3AFEED39FDEC38FC22BA
:10017300C3EF9BFFEE9AFEED99FDEC98FC2275F020
:1001830008758200EF2FFFEE33FECD33CDCC33CC99
:10019300C58233C5829BED9AEC99E58298400CF5B4
:1001A30082EE9BFEED9AFDEC99FC0FD5F0D6E4CEE2
:1001B300FBE4CDFAE4CCF9A88222B800C1B9005916
:1001C300BA002DEC8BF084CFCECDFCE5F0CBF978E3
:1001D30018EF2FFFEE33FEED33FDEC33FCEB33FB77
:1001E30010D703994004EB99FB0FD8E5E4F9FA2201
:1001F3007818EF2FFFEE33FEED33FDEC33FCC933FC
:10020300C910D7059BE99A4007EC9BFCE99AF90FC3
:10021300D8E0E4C9FAE4CCFB2275F010EF2FFFEE2F
:1002230033FEED33FDCC33CCC833C810D7079BEC7A
:100233009AE899400AED9BFDEC9AFCE899F80FD5F2
:10024300F0DAE4CDFBE4CCFAE4C8F922EF5BFFEE8D
:100253005AFEED59FDEC58FC22EB9FF5F0EA9E4265
:10026300F0E99D42F0E89C45F022E8600FECC313EF
:10027300FCED13FDEE13FEEF13FFD8F122E8600F40
:10028300EFC333FFEE33FEED33FDEC33FCD8F12245
:10029300E0FCA3E0FDA3E0FEA3E0FF22E0F8A3E07F
:1002A300F9A3E0FAA3E0FB22ECF0A3EDF0A3EEF058
:1002B300A3EFF022A8828583F0D083D0821202CEEE
:1002C3001202CE1202CE1202CEE473E493A3C583CC
:1002D300C5F0C583C8C582C8F0A3C583C5F0C5836F
:1002E300C8C582C822E0FBA3E0FAA3E0F922F8E044
:1002F300FBA3A3E0F925F0F0E582158270021583D4
:10030300E0FA38F022EBF0A3EAF0A3E9F022D0837D
:10031300D082F8E4937012740193700DA3A393F841
:10032300740193F5828883E4737402936860EFA386
:10033300A3A380DF75814B020B0B7F0191DD90003E
:10034300BCE07111036304036B1403701503751789
:10035300038530038A34038F360394370000037D0B
:100363005346EF854680802F5347EF80085347DF7E
:10037300800353477F854790801D5348DF8548A0FE
:1003830080155349FE800D5349EF80085349BF80C0
:100393000353497F8549B07F0CDFFE2271417FD72C
:1003A30091427FFF914271B49000B7EFF07FFF91CC
:1003B30042E5C820E2FBAFEB227F0191DD900927E4
:1003C3007401F0900927E0603391E971B090092737
:1003D300EFF0B114719F9000B8EFF0B114900927BA
:1003E300E05401F09000B7E0FFF460D7A3E0F460BD
:1003F300D2EF30E7CEE4900927F080C771417F9FA9
:10040300914271B09000B971AE9000BE71AE900090
:10041300BFEFF091D99000B7E0F4601BA3E0F46064
:10042300169000BEE0FD541F240FA3F0EDC4135437
:100433000744809000BEF02251937808516DE4E5A3
:10044300C820E2FB8FEB227F0191DD30021491E99A
:1004530071B0900929EFF0B114900929E020E0026E
:10046300C20230021C719F9000B8EFF09000B7E019
:10047300FFF4600BA3E0F46006EF30E702C202B1C1
:1004830014E4FF91DDA202E433FF2290090C51AB87
:1004930090090C5193B199900910E06F6034110ADF
:1004A300914AEF6004110E80F7B10871419000BAD0
:1004B300E0FFD1B9600990090C51937810913F90F6
:1004C300090C913B90090C91EF900910E0FF91D733
:1004D300D322C3229142B114E4FFEFB4010443FEDB
:1004E300202253FEDF2271417F0581425193E48133
:0A04F3004274FFF5F0310645F022D7
:100508007F0191DDD20271417F06914212112DEFD8
:1005180070FA9000BEE0F4600F9009267406F0901F
:100528000926E014F0E070F79000BCE07111055264
:1005380004055A14055F15056417057430057934E8
:10054800057E360583370000056C434610854680D6
:10055800802F434710800843472080034347808506
:100568004790801D4348208548A080154349018055
:100578000D43491080084349408003434980854919
:10058800B0900926740CF0900926E014F0E070F79A
:100598002290090751AB110A914AEF6004110E80AD
:1005A800F7D1B1600990090751937810913F9009EC
:1005B80007913B90090791EF71B090090BEFF0910B
:1005C800D990090BE0FF229000D151AB9000D57172
:1005D80008110A914AEF6004110E80F7B1087141C1
:1005E8009000BAE0FFD1B960099000D1519378101A
:1005F800913F9000D1913B9000D15193E4801B90A2
:1006080000D891F460189000D551E8EA494B600889
:100618009000D512144F8001E4FF914280E1B1149B
:10062800E4FF81DD110A914AEF6004110E80F7B1F1
:100638000871417F0191427F039142B114E4FF8127
:10064800DD9000DA51AB9000DE7108110A914AEF93
:100658006004110E80F7D1B160099000DA519378E7
:1006680010913F9000DA913B9000DA91EF9000E111
:1006780091F4601571B09000DE51E8EF11BC900064
:10068800DFE475F00111F080E4B114E4FF81DD903E
:1006980000B7E020E012713D7F3D91427F2A9142F0
:1006A8007F8091427FA691D7227F0191DD71417FA2
:1006B8000391429000BDE06402229000B9E011BCB1
:1006C8009000BEE090000111CE9000BFE0900002C3
:1006D80001CE900928EFF09000C5E0640270227105
:1006E8003D900928E07FAB60027FB99142B1149038
:0806F8000928E09000C4F07035
:10070000047F1EDFFEE4FF91DD229000C651AB9016
:1007100000CA710812142F9000CD1211019000C66A
:1007200051931210645002E1D39000C1E024FFFF06
:100730009000C0E034FFFEE4FCFD9000C6519F51E4
:100740004F9000CFEEF0A3EFF04E603BF1D5C39099
:1007500000C1E09FFF9000C0E09EFE9000CFF0A39C
:10076000EFF09000CDE0FCA3E0FDD39FEC9E50069F
:10077000A3ECF0A3EDF01213EAE94A6004F1D5808E
:10078000467E007F0080409000CDE0FEA3E0FF4E5B
:10079000603F9000C0E0FCA3E0FDD3EF9DEE9C40E5
:1007A0000A9000CFECF0A3EDF0800D9000CDE0FFBB
:1007B000A3E0A3CFF0A3EFF01213EAE94A6004F13B
:1007C000D580047E007F009000CBEE8FF011F0808A
:1007D000B6D322C3229000CFE0FEA3E0FF22110A8D
:1007E000914AEF6004110E80F7227B017A0079BCF8
:1007F0007F03120A1D7A0079C57F08120A1D7A004C
:1008000079C27D027F091209B77B017A0079C07D28
:10081000027F0B31B79000C0E0FEA3E0FF4E600600
:10082000BEFF1CBFFF199000C5E024FD60030470EB
:10083000055114F080099000C0E4F0A37440F090DA
:1008400000C5E024FD60030470089000BD7403F04F
:1008500080069000BD7402F09000BCE01203110805
:100860007B04088614088E1508961708AC3008B467
:100870003408BC3608C437000008A175FF01534294
:10088000EF8542FD804775FF015343EF800E75FFF2
:10089000015343DF800675FF0153437F8543C980C1
:1008A0002C75FF015344DF8544CA802175FF015335
:1008B00045FE801675FF015345EF800E75FF01530D
:1008C00045BF800675FF0153457F8545CB12051452
:1008D0007F1131A9E4FF1206DA1203BC9000BA744A
:1008E00002F09000BEE0247F600904701731AF74FD
:1008F0000A800712069731AF7458F09000BD740358
:10090000F05114F09000BFE0F4600221A69000C204
:10091000E0FEA3E0FF64104E70069000BF740EF07E
:10092000EF64204E70069000BF740FF0EF64404EED
:1009300070069000BF7410F0EF64804E7006900057
:10094000BF7411F0E4B5070AEEB401069000BF745D
:1009500012F0E4B5070AEEB402069000BF7413F07B
:10096000E4B5070AEEB404069000BF7414F0E4B5D1
:10097000070AEEB408069000BF7415F0E4B5070A44
:10098000EEB410069000BF7416F0E4B5070AEEB49A
:1009900020069000BF7417F0E4B5070AEEB44006D5
:1009A0009000BF7418F002062CEF4420F5FE227F61
:1009B0001031A99000BA22900911EFF0A3EDF0A335
:1009C000120308900912E0604A901215E06012903C
:1009D0000911E02410FF51249009131202E8EF805E
:1009E00017900911E0640190091370071202E8746E
:1009F0008080051202E874FF1200BC900914E475AF
:100A0000F0011200F0900912E014F0900911E004D6
:100A1000F080B0229000C07401F0A3E4227D013187
:100A2000B77B012275FF03E4F597F1EFE59720E12D
:100A3000FB75FF03AF992290091B7410F090091BFE
:100A4000E0FFD3947F503C512490091CEFF09009B3
:100A50001BE0B410067E1D7F0F800890091DE0FE8C
:100A6000A3E0FF7B017A09791C9000E8E4F0A3047D
:100A7000F051A390091DEEF0A3EFF090091BE004E4
:100A8000F080BA90091DE07002A3E07F0070027F41
:100A900001901215EFF024FF22E0FD9000E8E4F051
:100AA000A3EDF09000E3EEF0A3EFF0A312030890A3
:100AB00000E81204F4604B9000E512144F9000EA35
:100AC000F07D80ED60E97102EE7C0030E7027C0190
:100AD0009000EAE05D7B0060027B01EB6CFCEF259F
:100AE000E0FFEE339000E3F0A3EFF0AF04EF600C13
:100AF0009000E3E06410F0A3E06421F0EDC313FD87
:100B000080C19000E3E0FEA3E0FF2275FF03759E25
:100B1000029017FAE493F53C75FF02E5E654036092
:100B200002C1B4753CDE753DAD753EBE753FEFC28A
:100B3000AF75FF0275E404F5E47546FF7547FF7570
:100B400048FF7549FF7542FF7543FF7544FF7545C2
:100B5000FF75FF0253E6BF51371207EA121139EF52
:100B600064016002C1AB90180893FE740193FF907A
:100B700000ADEEF0A3EFF0F5828E83E493F54074C0
:100B80000193F541740293F54A740393F54B740491
:100B900093F530740593F531740693F53274079329
:100BA000F533C201EF4E7002818BEFF4FFEEF44F8C
:100BB0007002818BE540454AFEE541454BFFE5303B
:100BC0004EFEE5314FFFE5324EFEE5334F4E7002EB
:100BD000818BE54BF4FFE54AF4FEE541F4FDE54089
:100BE000F44EFEED4FFFE531F4FDE530F44EFEEF3F
:100BF0004DFFE533F4FDE532F44EFEEF4D4E70024D
:100C0000818B7F03D1B7E53324FFFFE532F1E66442
:100C10000370227F02D1B7E53124FFFFE530F1E612
:100C2000B402127F01D1B7E54B24FFFFE54AF1E69C
:100C3000B40102D2012001537F01D1B7121002E5A5
:100C40004AF0A3E54BF07F0F7E1DD1E37F02F1F860
:100C5000E530F0E531D1E17F03F1F8E532F0E5333D
:100C6000D1E17F01D1B7900922E0FEA3E0FF7BFF35
:100C70007A187900E425419000E9F0E54034E890E5
:100C800000E8D1E24EC37001D3920130010A121282
:100C90000FEF64016002C1AB9000ADE0FEA3E0F590
:100CA000828E83740C93F53A740D93F53B90009605
:100CB000120293D1C7900079E0FEA3E0FFF1C8D102
:100CC000FCEF2408FFE43ED1D97B007A007938F1AB
:100CD000D17402F0120649C200D3900078E0953931
:100CE000900077E095384002A1B69000AF12029FC5
:100CF000C000C001C002C003AE38AF39E4FCFDC083
:100D000006C007900077E0FEA3E0FBAA06E4F9F82E
:100D1000D007D006120173D003D002D001D0001248
:100D20000166D1C790007B120293EF24F2FFEE34EC
:100D3000FF121442121208507D9000AF1202937AF3
:100D400000799FF1CF740EF01206499000ABE0F5E8
:100D500036A3E0F5379000A1E0F54AA3E0F54BA3F8
:100D6000E0F530A3E0F531A3E0F532A3E0F53390F0
:100D70000092120293EF24FFFFEE347FD1D9D1C746
:100D8000AE4AAF4BF1C8D1FC120599EF6401702651
:100D9000D1CDD1C7AE30AF31F1C8D1FC120599BF6A
:100DA0000214D1CDD1C7AE32AF33F1C8D1FC120598
:100DB00099BF0302D200200002C1A630010EE53B1C
:100DC00065377004E53A65367002C1A67B017A0981
:100DD0007922F1024002C1A690009B1202B70000E6
:100DE0001800D1EEC17E7440D395345002C1939067
:100DF000007BF1C1EE34F812144212029FD31202AA
:100E00005C4002C19390009B1202937B007AF879B8
:100E1000017800C312025C407A9000AF1202930B7B
:100E20007A0179009000E17408F0A3E4F012064919
:100E3000E4F535FB12132EAF34121377E535C39466
:100E400008502112132CE5357F00FEEF2400F974C1
:100E5000013EFA7B0190091AE535F0AD341213A278
:100E6000053580D890009BF1C1EE3408D1D99000AF
:100E70009B1202AB9000AFF1C1EE3408D1D9D1C7BB
:100E8000E4FB7A08F9F890009B1202931201BD8FDF
:100E900034A1E67440D39534400C12132CAF3412B5
:100EA0001377053480EDE4FF1211BFE4F53CF53D06
:100EB000F53EF53F021800AEFFEE54CFFEEFC454EE
:100EC000F024804EF5FF229000AF0202AB9000AFFD
:100ED000120293E42FFFEE3480FEE43DFDE43CFC7F
:100EE00022A3F051A3900922EEF0A3EFF02290008C
:100EF00079E0FEA3E0FFE4FCFD90009612029F0261
:100F0000016690091F120308D1EEEF2408FFE43EAA
:100F1000D1D97A00797FF1CF7402F012064990009E
:100F20007FE0FEA3E0FFE4FCFD900092D1FC7B019A
:100F30007A007984F1D1740EF0120649900092D1B2
:100F4000D0F1E09000861214357F0F7E1D1212F151
:100F500012011CFFAEF0C006C007F1BEE43EF1D89E
:100F6000900088121435D007D0061212F112011C1D
:100F7000FFAEF0C006C007F1BEEE3480F1D890009D
:100F80008A121435D007D0061212F112011CFFAEDE
:100F9000F0C006C007D1EEF1E0900085E02400FE2D
:100FA000900084E034E8900006F0A3CEF0D007D0A3
:100FB000061212F112011C45F0C37001D3229000F9
:100FC00092120293E42FFF22E4FCFD9000AF227BFB
:100FD000019000E1E4F0A322FEED3401FDE43CFCCD
:100FE0009000020202AB347F8F82F583E493227576
:100FF000FF038F9875FF0322D1B7900922E0FEA36B
:10100000E0FF7BFF7A8079009000E822E4FCFD029B
:101010000599AB05E4FCFD900910EBF002048E90FD
:1010200000FC120308E4FCFDC0079000FC1202E87B
:101030009000FFE0FF120FD1EFF0D00702064990B9
:1010400000F5120308E4FCFDC0079000F51202E869
:101050009000F8E0FFA3E09000CDCFF0A3EFF0D038
:101060000702070A90004F1202AB900053120308C8
:10107000E4900076F0D3900057E0941E900056E084
:1010800094004001227B017A007958900056E0FFDD
:10109000A3E09000E1CFF0A3EFF090004F12029395
:1010A0001206499000531202E8E94A600F90007658
:1010B000E0F58275830012008FFF80027F009000B0
:1010C00076E02458F582E43400F583E06F6002C3D3
:1010D00022900076E004FFF0D3900057E09F90004C
:1010E00056E0940050BD22900902120308E4FCFD72
:1010F000C0079009021202E89009053101D00701EA
:1011000064E0FFA3E0900056CFF0A3EFF022EFB42D
:101110000109D2AD75FF0143AE4022C2AD75FF019A
:1011200053AEBF22E5C85402FF75C80222E5C85479
:1011300004FF22E5C85401FF22E490009AF07B01ED
:101140007A0079811206C2900083E0FBB4112290EC
:1011500000961202B7000078009000921202B700C9
:101160000060009000777418F0A3E4F0A3F0A3806F
:10117000277412D39B50279000961202B7000200EA
:10118000009000921202B700020000E4900077F095
:10119000A3F0A37418F0A3E4F090009A04F0900078
:1011A0009AE0FB6017E4FFFE7D02FC900083E024E0
:1011B000EFF9F812028090007B1202ABAF0322908D
:1011C0000924EFF0E4A3F090009AE0602131FF7071
:1011D0000831F47E777D00800A5140501131F47E51
:1011E000FF7D017C0012048EE433900925F0900904
:1011F00025E0FF22900924E0900910F07FFF22E40F
:10120000FFFE7D02FC90007B12029FC302025CE4A1
:1012100090092AF090009AE0602031FF70087FFF6B
:101220007E77FDFC800C514050107FFF7EFF7D01DA
:101230007C0012059990092AEFF090092AE0FF221C
:1012400090007B120293E4FBFA7904F8D302025C6B
:10125000900000EEF0A3EFF0A312029390000812AA
:1012600002AB900006E0FFA3E090000CCF807390EB
:10127000000CE0FEA3E0FF4E606EC3EF9440EE94DE
:10128000004006A37440F0800590000EEFF07B0153
:101290007A00790F90000EE0FF120FD1EFF090006E
:1012A0000812029312064990000EE0FFC390000D51
:1012B000E09FF090000CE09400F090000812029F74
:1012C00090000EE4FCFDFE1201669000081202ABD5
:1012D00051E87B017A00790F90000E120A99900074
:1012E00000EEF0A3EFF08087900000E0FEA3E0FFA7
:1012F00022515090091F1202E8EE8FF01201479020
:10130000091F0202E87F0F7E1D120A9B9000EF1258
:1013100002E89000F2020A9975FF03759701120F17
:10132000EFE59720E1FB75FF03AF99227B007A0080
:10133000793C75FF0375D40275FF03120076F5D36F
:1013400075FF03900001715E900002715E900003D2
:10135000715E75D40175FF03E5D55402FF221200BA
:101360008FF5D375FF032275FF0375D40275FF0354
:10137000E5D5F45402FF2275FF03EF543F4480F596
:10138000D1E5D520E20AE5D520E005E5D530E1F14B
:10139000E5D55403FF75FF0375D50575FF0375D4B7
:1013A000022275FF03ACD5EC20E13C75FF03ED5440
:1013B0003FF5D175FF03E9F5D375FF03EA540FFF3D
:1013C00090091AE0C4547044804FF5D2E5D520E26C
:1013D00005E5D530E0F6E5D55401FC75FF0343D4AF
:1013E0000275FF0375D505AF04229000CA1202E80A
:1013F0009000CFE0FFA3E09000D8CFF0A3EFF090F3
:1014000000C61202931205CF9000CFE0FEA3E0FFCA
:10141000C39000CEE09FF09000CDE09EF09000C61B
:1014200012029FE4FCFD1201669000C61202AB900E
:1014300000CA0202E8E0FFA3E0900006CFF0A3EFAD
:10144000F022FEED34FFFDEC34FFFC9000AF22E40F
:0914500075F0011202F1020076B0
:1017FA000436FFFEFFFF0229ED1A5C1A61227FB848
:10180A00EF90181393901900730A20364CE55CFF89
:10181A0022EFF55C225A2D5761766520342E353435
:10182A0000024941E4FFFE122046600C0FEF7001EE
:10183A000E09E970F20A80EF22822D1C161311108C
:10184A0010023E51902BF7EBF0A3EAF0A3E9F0E483
:10185A00902BFFF0A3F0902BFD74FFF5F012215F9F
:10186A0045F0603C902BFAE0FBA3E0FAA3E0F91202
:10187A002046FF902BF7E0FBA3E0FAA3E0F9902BB8
:10188A00FFE475F00112215F85F082F583EF1220E3
:10189A00C0EF60C2902BFBE475F00112214980B6BB
:1018AA00902BF7E0FBA3E0FAA3E0F922C2D5E830D7
:1018BA00E70FB2D5E4C39BFBE49AFAE499F9E498FA
:1018CA00F8EC30E717B2D51218EC122265E4C39B84
:1018DA00FBE49AFAE499F9E498F880031222653055
:1018EA00D50DE4C39FFFE49EFEE49DFDE49CFC222B
:1018FA001B511B561B5BC05C7419C0E0C082C083BD
:10190A00755C0AE5FF54CF4490F5FF22C05C741958
:10191A00C0E0C082C083755C20E5FF54CF4490F5D7
:10192A00FF22C05C7419C0E0C082C083755C36E5D2
:10193A00FF54CF44A0F5FF22C05C7419C0E0C082F6
:10194A00C083755C4CE5FF54CF44B0F5FF2290800C
:10195A00042116908800211690880321169097F387
:10196A002116909FF82116909FFB211690A7FD2122
:10197A001690AD71211690875C211690B029211618
:10198A0090892A211690B834211690B835211690DC
:10199A00B952211690B615211690B8E5211690C0B5
:1019AA00A8211690B260211690B353211690C2A6B0
:1019BA00211690A112211690C57A211690C58F2161
:1019CA001690C5A1211690C5BE211690C78A211668
:1019DA0090C7E1211690B0AC211690C97A211690D1
:1019EA00C929211690C95A21169088C9211690C46E
:1019FA009E211690BD09211690BDD7211690BD07CC
:101A0A00211690C9B6211690B2D5211690BE612131
:101A1A001690BDEB211690BEEB211690BF772116CA
:101A2A0090882D211690886F211690BFBD2116909F
:101A3A00CE40211690AD91211690CE87211690CADC
:101A4A00E7211690C788211690C6E2211690C7385A
:101A5A00211690B8D72116908788211690C845215B
:101A6A001690A8D8212C90A8DE212C90A9A0212C70
:101A7A0090AC40212C90B2B2212C90AA04212C9037
:101A8A00B5DD212C90B6F8212C90C0FE212C90C1F6
:101A9A0004212C909986212C90C19C212C90A8126B
:101AAA00212C90C19D212C90BCFD212C90BFC421DA
:101ABA002C90B86B212C90C785212C90C75D212CC6
:101ACA0090A8E4212C90C819212C90BB3D212C9080
:101ADA00A892212C909CE5212C90B198212C90B3AE
:101AEA00A7212C90C87A212C90C6FD212C90C88061
:101AFA00212C90CA0B212C90CB52212C90CB9421D3
:101B0A002C90CBEC212C90CC56212C90CCAB212CB8
:101B1A0090CCD1212C90CA46212C90CD0B212C900F
:101B2A00CD11212C90CD20212C90CD2F212C90CC81
:101B3A0012212C90CD5A212C90CDB4212C90CE0379
:101B4A00212C9096BA212C90CE51212C90CEFF2197
:101B5A002C90BB1A212C90CF0E212C90CA99212CA3
:101B6A0090CF28212C90CFDD212C90CFDE212C0084
:101B7A00021F3BE86480F8E933E83360110460F03F
:101B8A00ED33EC337009E8FCE9FDEAFEEBFF2204D1
:101B9A0060DED3EB9FEA9EE99DE8C2E78CF0C2F7CC
:101BAA0095F0400CE8CCF8E9CDF9EACEFAEBCFFB98
:101BBA00121F0685D0F05804700320D5B3E80470CC
:101BCA00075002B2D5021F4592D5EC0460F7E4CC67
:101BDA00C0E0C398F8603B94186008400DD0E0FB61
:101BEA00021F1DE4FBFAC9FC8028E830E406E4C9B8
:061BFA00FBE4CAFCE83028
:101C0000E305E4C9CACBFCE854076010F8C3E91344
:101C1000F9EA13FAEB13FBEC13FCD8F130F52FC300
:101C2000E49CFCEF9BFFEE9AFEED99FDD0E0FBEF0C
:101C30004E4D4C701222DB03021F42EC2CFCEF33A2
:101C4000FFEE33FEED33FDED30E7EB021F1DEF2B12
:101C5000FFEE3AFEED39FDD0E0FB50130BBB000365
:101C6000021F45ED13FDEE13FEEF13FFEC13FC0214
:101C70001F1DEC4D6011E8497017ED33EC33046023
:101C80000DE4FCFFFEFD22E933E8330470F8021F87
:101C90003B121F0658046009E4CC248150062850EA
:101CA00009021F45284003021F42C0E0EB4A70446E
:101CB000B98006D0E0FB021F31EF4E701CBD8008DA
:101CC000EBFFEAFEE9FD80EBE98DF0A4FEE5F00212
:101CD0001D5BE9CDF9EAFEEBFFEF89F0A4FCE5F02E
:101CE000CE89F0A42EFFE435F0CD89F0A42DFEE4DA
:101CF00035F08067EF4E7005BD80D780C3EF8BF065
:101D0000A4ACF0EE8BF0A42CFCE435F0F8EF8AF0F4
:101D1000A42CE5F038FCE433CB8DF0A42CFCE5F0EA
:101D20003BF8EE8AF0A42CFCE5F038F8E433CF89D8
:101D3000F0A42CFCE5F038CF3400CE89F0A42FFFBE
:101D4000E5F03EFEE433C98DF0A42EFEE5F039CD7A
:101D50008AF0A42FFFE5F03EFEE43DFD33D0E0FB2A
:101D600050070BBB000F021F45EC2CFCEF33FFEEBE
:101D700033FEED33FD021F1D021F45EC5D046005BF
:101D8000E859047003021F3B121F06580460F6EC6A
:101D90004860F2EC7004FDFEFF22C860DB2481C8BD
:101DA0005009C39860025006021F429850CAF5823B
:101DB000E9294B4A7005AB82021F3175F0007C1A8D
:101DC0007880C3EF9BEE9AED99400DC3EF9BFFEE39
:101DD0009AFEED99FDE842F0DC23ACF0D0E0FFD0B4
:101DE000E0FED0E0FDAB8220E7101BEB60BAEC2CEC
:101DF000FCEF33FFEE33FEED33FD021F1DE803F869
:101E000030E705C0F075F000EF2FFFEE33FEED3345
:101E1000FD40B830E7C280AA74F8CC6480CCC864B6
:101E200080C8F58204604FC3EB9FF5F0EA9E42F054
:101E3000E99D42F0E89C45F0603C501DE5825FFF63
:101E4000E582D313CB5BCBF42B5582FB50280ABA27
:101E5000002409B9002008801DE5825BFBE582D3E0
:101E600013CF5FCFF4C3132F5582FF50090EBE006E
:101E7000050DBD00010CC3EB9FF5F0EA9E42F0E9B1
:101E80009D42F0E89C45F06007CC4820E701B3ECA8
:101E90002275F020800E75F010800575F0087D0029
:101EA0007E007F003392D530D503122311EC3340EE
:101EB00010EF33FFEE33FEED33FDEC33FCD5F0EDE8
:101EC00022E5F0247EA2D513CC92E7CDCEFF22ED01
:101ED000D2E7CD33EC3392D524814006E4FFFEFDFA
:101EE000FC22FCE4CFCECDCC24E0501174FF80ED79
:101EF000C3CC13CCCD13CDCE13CECF13CF0470F003
:101F000030D5DE022311E9D2E7C933E833F892D5A0
:101F1000EDD2E7CD33EC33FC5002B2D522EC30E702
:101F2000100FBF000C0EBE00080DBD00040BEB60CF
:101F300014A2D5EB13FCED92E7FD2274FFFCFDFE2D
:101F4000FF22E480F8A2D574FF13FC7D80E480EFCB
:101F5000E709F608DFFA8046E709F208DFFA803E73
:101F600088828C83E709F0A3DFFA8032E309F60860
:101F7000DFFA8078E309F208DFFA807088828C83C8
:101F8000E309F0A3DFFA806489828A83E0A3F6087C
:101F9000DFFA805889828A83E0A3F208DFFA804C56
:101FA00080D280FA80C680D4806980F2803380102D
:101FB00080A680EA809A80A880DA80E280CA803396
:101FC00089828A83ECFAE493A3C8C582C8CCC5830E
:101FD000CCF0A3C8C582C8CCC583CCDFE9DEE780DE
:101FE0000D89828A83E493A3F608DFF9ECFAA9F05D
:101FF000EDFB2289828A83ECFAE0A3C8C582C8CCB3
:10200000C583CCF0A3C8C582C8CCC583CCDFEADECB
:10201000E880DB89828A83E493A3F208DFF980CC2D
:1020200088F0EF60010E4E60C388F0ED2402B40426
:102030000050B9F582EB2402B4040050AF232345CD
:102040008223901FA073BB010689828A83E02250FD
:1020500002E722BBFE02E32289828A83E49322BB49
:10206000010CE58229F582E5833AF583E0225006EA
:10207000E92582F8E622BBFE06E92582F8E222E5A0
:102080008229F582E5833AF583E49322BB0109892D
:10209000828A83F8E028F022500327F722BBFE054E
:1020A000F8E328F3228A838982F8E4932822BB018B
:1020B0000689828A83F0225002F722BBFE01F322B6
:1020C000F8BB010DE58229F582E5833AF583E8F056
:1020D000225006E92582C8F622BBFE05E92582C802
:1020E000F222EF8DF0A4A8F0CF8CF0A428CE8DF0D2
:1020F000A42EFE22BC000BBE0029EF8DF084FFADA4
:10210000F022E4CCF875F008EF2FFFEE33FEEC334D
:10211000FCEE9DEC984005FCEE9DFE0FD5F0E9E449
:10212000CEFD22EDF8F5F0EE8420D21CFEADF07568
:10213000F008EF2FFFED33FD4007985006D5F0F281
:1021400022C398FD0FD5F0EA22C5F0F8A3E028F0ED
:10215000C5F0F8E582158270021583E038F022A3FD
:10216000F8E0C5F025F0F0E582158270021583E0F5
:10217000C838F0E822BB010A89828A83E0F5F0A31F
:10218000E022500687F009E71922BBFE07E3F5F0CD
:1021900009E3192289828A83E493F5F0740193227A
:1021A000BB010A89828A83F0E5F0A3F0225006F78A
:1021B00009A7F01922BBFE06F3E5F009F31922EF97
:1021C0002BFFEE3AFEED39FDEC38FC22C3EF9BFF0E
:1021D000EE9AFEED99FDEC98FC22E88FF0A4CC8BF2
:1021E000F0A42CFCE98EF0A42CFC8AF0EDA42CFCCD
:1021F000EA8EF0A4CDA8F08BF0A42DCC3825F0FD0C
:10220000E98FF0A42CCD35F0FCEB8EF0A4FEA9F004
:10221000EB8FF0A4CFC5F02ECD39FEE43CFCEAA450
:102220002DCE35F0FDE43CFC2275F008758200EF00
:102230002FFFEE33FECD33CDCC33CCC58233C582F8
:102240009BED9AEC99E58298400CF582EE9BFEEDB1
:102250009AFDEC99FC0FD5F0D6E4CEFBE4CDFAE480
:10226000CCF9A88222B800C1B90059BA002DEC8B74
:10227000F084CFCECDFCE5F0CBF97818EF2FFFEE50
:1022800033FEED33FDEC33FCEB33FB10D703994009
:1022900004EB99FB0FD8E5E4F9FA227818EF2FFF49
:1022A000EE33FEED33FDEC33FCC933C910D7059B8B
:1022B000E99A4007EC9BFCE99AF90FD8E0E4C9FAE7
:1022C000E4CCFB2275F010EF2FFFEE33FEED33FD73
:1022D000CC33CCC833C810D7079BEC9AE899400A96
:1022E000ED9BFDEC9AFCE899F80FD5F0DAE4CDFB14
:1022F000E4CCFAE4C8F922EF5BFFEE5AFEED59FD9B
:10230000EC58FC22CFF4CFCEF4CECDF4CDCCF4CC2F
:1023100022C3E49FFFE49EFEE49DFDE49CFC22EBCF
:102320009FF5F0EA9E42F0E99D42F0E89C45F022DC
:10233000E8600FECC313FCED13FDEE13FEEF13FF8B
:10234000D8F122E8600FEFC333FFEE33FEED33FD2B
:10235000EC33FCD8F122BB010789828A83022398DF
:102360005005E9F80225D2BBFE05E9F80225DE2278
:10237000E0FCA3E0FDA3E0FEA3E0FF22E493FC74F5
:102380000193FD740293FE740393FF22E0F8A3E02F
:10239000F9A3E0FAA3E0FB22ECF0A3EDF0A3EEF04A
:1023A000A3EFF022A8828583F0D083D0821223BBD2
:1023B0001223BB1223BB1223BBE473E493A3C58394
:1023C000C5F0C583C8C582C8F0A3C583C5F0C58361
:1023D000C8C582C822A42582F582E5F03583F5833D
:1023E00022E0FBA3E0FAA3E0F922F8E0FBA3A3E0DC
:1023F000F925F0F0E582158270021583E0FA38F0D5
:1024000022F8E0FBA3A3E025F0F9F0E58215827045
:10241000021583E038FAF022EBF0A3EAF0A3E9F02A
:1024200022BB010789828A830223E15005E9F80271
:1024300025EABBFE05E9F80225FC89828A8302268B
:102440000EBB011A89828A83D0F0D0E0F8D0E0F97F
:10245000D0E0FAD0E0FBE8C0E0C0F002241850164B
:10246000E9F8D083D082D0E0F9D0E0FAD0E0FBC028
:1024700082C0830225F3BBFE16E9F8D083D082D058
:10248000E0F9D0E0FAD0E0FBC082C083022605224A
:10249000D083D082F8E4937012740193700DA3A3DB
:1024A00093F8740193F5828883E4737402936860EF
:1024B000EFA3A3A380DF8A838982E473EC8EF0A468
:1024C000CCC5F0CCCDF8EFA4CEC5F02DFDE43CFC9E
:1024D000E8A42EC8C5F03DFDE43CFCEFA4FFE5F008
:1024E00028FEE43DFDE43CFC22E709F60870FA8092
:1024F00046E709F20870FA803E88828C83E709F08B
:10250000A370FA807EE309F60870FA8076E309F298
:102510000870FA806E88828C83E309F0A370FA80D9
:102520006289828A83E0A3F60870FA805689828ADB
:1025300083E0A3F20870FA804A80D280FA80C680D5
:10254000D4806580F28031801080A680EA809A80F5
:10255000A880DA80E280CA803189828A83ECFAE43A
:1025600093A3C8C582C8CCC583CCF0A3C8C582C814
:10257000CCC583CC70E9800D89828A83E493A3F66D
:102580000870F9ECFAA9F0EDFB2289828A83ECFA53
:10259000E0A3C8C582C8CCC583CCF0A3C8C582C897
:1025A000CCC583CC70EA80DD89828A83E493A3F270
:1025B0000870F980CE88F0ED2402B4040050C4F510
:1025C00082EB2402B4040050BA23234582239025D1
:1025D0003973ECF608EDF608EEF608EFF622ECF2A9
:1025E00008EDF208EEF208EFF222E6FB08E6FA0840
:1025F000E6F922EBF608EAF608E9F622E2FB08E241
:10260000FA08E2F922EBF208EAF208E9F222E4938E
:10261000FB740193FA740293F922412B05004102E5
:10262000B200412EB300C13BC13141041506011473
:10263000004104140141041301C127011A000117CC
:1026400000C128C12AC11E4126A40041270AFF411A
:10265000270200C11DC11C41270B0041270C00416E
:10266000270301C1204126A300C12DC124012C0054
:10267000C121C122432D51000000412D5000412DA8
:102680005400C10841249000C10BC1904125A30012
:102690004124760041245F004125BA0141245E00B7
:1026A0004125B9004125C0004125360042247E0065
:1026B0000F442462000000004424CA0000000044CB
:1026C00024670026FF85C10E012000C10F4124614F
:1026D000FF412498004125AA00C192C10A4124C6A5
:1026E00000C109C10C4125BB05C113412492004121
:1026F00024B2284125440042247C000041254300A7
:1027000041247B004124AC0049246B4C6966656C14
:10271000696E65005324B352657472616E736D699E
:10272000745377697463684343004825B12003827A
:102730000132025A014C2484250120012604260579
:1027400026012B015324995E253231272C2B7085CD
:10275000595672867A7398EF5A824124AF00412409
:102760009700412453FF4124520041249300412506
:1027700034004125A20042245C000041253500417F
:10278000246000606624CE0000000000000000000D
:102790000000000000000000000000000000000039
:1027A0000000000000000000000000000000000029
:1027B0000000000000000000000000000000000019
:1027C0000000000000000000000000000000000009
:1027D00000000000000000000000000000000000F9
:1027E0000000000000000000000000000041245B29
:1027F000004124513C412D6DFF412D08FF412D0327
:10280000FFC1AEC130412D0200C12F442A0000009B
:1028100000004429FC000000004429F400000000EE
:102820004429EE000000004129EC00542A04000075
:102830000000000000000000000000000000000098
:1028400000004129ED004129F200C152432E12003F
:102850000000412E1500432D1F000000412D2400D3
:10286000C1574121C3004122840041207000C1387A
:10287000C13741206EFF412026004121C402412280
:1028800010FF4121FE0041275BFF4127D7FF412771
:10289000EAFF4127EBFF4127E9004127DE004127FE
:1028A000E8004327E30000004127E7004327D80062
:1028B00000004127DD004127E6004227EC000042EE
:1028C00027DF00004227E10000412AC700412AD04B
:1028D00000412AD400412AD300412ACF00412ACA0C
:1028E00000422AC80000422AD60000C15C41286884
:1028F000004128BAFF605028690103030000050564
:10290000001B650501001B650007010000020303B1
:1029100000000201001B650306001B650301001B8C
:10292000650101001B6501020200000008040000AF
:1029300004040500000004051B6F0005000000FFF3
:1029400003FE0000FFFFFE1B605928BE0207D01BDC
:102950006A0307D01B6A0500141B6A0107D01B6AB3
:102960000407D01B6AE00C026661008600000003C9
:10297000004E031C04360090261AE47E0193700179
:1029800022A3FF543F30E509541FFEE493A36001E6
:102990000ECF54E0B4E03AEFFAEEF9E493FBA3E48F
:1029A00093FEA3E493FFA3E493FDC083C082C00120
:1029B000C002C006C007121971D007D006D002D0DD
:1029C00001D082D083A30FEF70010EDADAD9D8805C
:1029D000A954C025E060105005A3DFFD809CA3A38F
:1029E000A3DFFDDEFB8093A3A3DFFD808D75818CCB
:1029F00075FF03759E02121920023243022AC69007
:102A0000261AE47E019360F4A3FF543F30E5095495
:102A10001FFEE493A360010ECF54E0B4E00EEFFA82
:102A2000EEF9A3A3A3A3DAFDD9FB80D654C025E019
:102A3000604B5026E493A3F85407240CC8C333C456
:102A4000540F4420C8834004F456800146F6DFE466
:102A500080B00102040810204080E493A3FAE493BC
:102A6000A3F8E493A3C8C582C8CAC583CAF0A3C8A3
:102A7000C582C8CAC583CADFE9DEE78085E493A3BF
:102A8000F8E493A34003F68001F208DFF4022A027F
:102A9000788CE4F6D8FD9000007F007E10E4F0A36F
:102AA000DFFCDEFA904FFFA3E583C394204011FEC4
:102AB000AF829020000E0FE48002F0A3DFFCDEFA6C
:102AC0001219200229FF22321A6B1A705E86729840
:102AD00056EF5A82253231272C2B70855956728633
:102AE0007A735A821A751A7A1A7F1A841A8EA16416
:102AF000A16C2174216400001ADE1AB11AB61ABB47
:102B00003F241E16110E0B09070504030201F0C82D
:102B1000A7917767604638353230242220140001AF
:102B2000010202030304040505060607070000006E
:102B3000000000000000000000000000001B241B3B
:102B4000291B2E1B331B381B3D1B421B47980500BE
:102B5000000D45DA000D403000000000020C0001BD
:102B60003F3F3F04040419E419E919EE19F319F879
:102B700019FD1A071A16BDE51AFC1B011B061B0BD3
:102B80001B101B151B1A1B1F198F199E19A319A89F
:102B900019AD19B71B601B651B6A1B6F1B741ACA22
:102BA0001ACF1AD41AD91AC01AC5004000001AE365
:102BB0001AE81AF21AF71A391A431AED902AFDE0A8
:102BC0001224902BDF042BE7142BEC152BF1172C80
:102BD00001302C06342C0B362C103700002BF95307
:102BE00053EF855380802F5354EF80085354DF8078
:102BF0000353547F855490801D5355DF8555A08025
:102C0000155356FE800D5356EF80085356BF800370
:102C100053567F8556B07F0CDFFE227F01D13C905A
:102C20002EB07401F0902EB0E0603771BC7F05913A
:102C3000B0902EB0EFF0B15891AC902AF8EFF0912F
:102C4000B2902AF9EFF0B158902EB0E05401F1A201
:102C500060D3A3E0F460CEEF30E7CAE4902EB0F08A
:102C600080C371BC7F9F91B0902AFAEFF091B2902F
:102C70002AFFEFF091B2902B00EFF0D138902AF8B4
:102C8000E0F4601BA3E0F46016902AFFE0FD541FFF
:102C9000240FA3F0EDC41354074480902AFFF022C0
:102CA000122370E4E5C820E2FB8FEB2271BC7FD7D2
:102CB00091A47FFF91A4E5C820E2FBAFEB227F0146
:102CC000D13C30391671BC7F0591B0902EB2EFF037
:102CD000B158902EB2E020E002C23930391E91ACDA
:102CE000902AF8EFF091B2902AF9EFF1A2600BA3CD
:102CF000E0F46006EF30E702C239B158E4FFD13C9E
:102D0000A239E433FF22902D85122398902D85124D
:102D10002370D148902D89E06F602FF12091BEEF94
:102D20006004F10C80F7B14C71BCF12F6007902D5D
:102D300085F17B91A4902D85F17191A4902D8591C1
:102D4000A0902D89E0FFD136D322C3227F01D13C50
:102D5000D23971BC7F0691A4F1F6EF70FB902AFF87
:102D6000E0F4600A902EAF7406F0F18E70FC902AA9
:102D7000FDE01224902D91042D99142D9E152DA364
:102D8000172DB3302DB8342DBD362DC23700002D90
:102D9000AB435310855380802F4354108008435415
:102DA000208003435480855490801D4355208555D1
:102DB000A08015435601800D4356108008435640AD
:102DC00080034356808556B0902EAF740CF0F18E80
:102DD00070FC22902C01122398902C05122418F1DB
:102DE0002091BEEF6004F10C80F7B14C71BCF12F63
:102DF0006007902C01F17B91A4902C01F17191A4BA
:102E0000902C01122370E48023902C08F1AA6020FA
:102E1000902C051223E1EA494B600F902C05E475D4
:102E2000F0011223EA1220468001E4FF91A480D928
:102E3000B158E4FF800691A4B158E4FFEFB4010457
:102E400043FE202253FEDF22902D80122398F12092
:102E500091BEEF6004F10C80F7F185F134600790CA
:102E60002D80F17B91A4902D80F17191A4902D8003
:102E7000122370E491B0902D84EFF0D138902D841E
:102E8000E0FF22902C0A122398902C0E122418F1A5
:102E90002091BEEF6004F10C80F7F185F1346007FA
:102EA000902C0AF17B91A4902C0AF17191A4902CA2
:102EB0000A91A0902C11F1AA601191B2902C0E12DF
:102EC0005091902C0FE412499A80E8B158E4FFC168
:102ED0003CF12091BEEF6004F10C80F7B14C71BC65
:102EE0007F0191A47F0391A4B158E4FFC13C902AD3
:102EF000F8E020E0167F01D13C71BC7F3D91A47FBA
:102F00002A91A47F8091A47FA6D13622E51530E2D4
:102F10000EE51520E509E51530E0047F01F1B82242
:102F200075FF02E5E430E10675E40675E4032290DE
:102F30002AFBE0FF91A4902AFEE0640222902EB1C9
:102F4000EFF0902B06E0640270267F01D13C71BC4B
:102F5000902EB1E07FAB60027FB991A4B158902E62
:102F6000B1E0902B05F070047F1EDFFEE4FFD13C42
:102F7000221223707808122330E422122370781072
:102F8000122330E4227F01D13C71BC7F0322902EBA
:102F9000AFE014F0E022F12091BEEF6004F10C806C
:102FA000F722F0902AF8E0FFF42274FFF5F01221E6
:102FB0005F45F022EFF07F01EF600A1234BAE4FDC2
:102FC000124E138009F1D11251ABE433FF227F017D
:102FD00022F1DCEF70051234CC80F622E4FF1236C9
:102FE0006054F0FEBE40037F00220FEFB403EF7F7A
:102FF0000122E4FFC13CE5C85404FF22902AFAE014
:103000001220AE902AFFE09000011220C0902B0009
:10301000E09000020220C07A2A79FD7F03F1337A22
:103020002B79067D017F081219D57A2B79037F0948
:1030300031D47A2B79017F0B31D4902B01E0FEA3A0
:10304000E0FF4E6006BEFF1BBFFF18902B06E0247A
:10305000FD600304700431DB8009902B01E4F0A3D0
:103060007440F0902B06E024FD6003047008902A61
:10307000FE7403F08006902AFE7402F0902AFDE0B0
:10308000122490309F0430A41430AC1530B41730A3
:10309000CA3030D23430DA3630E237000030BF1276
:1030A0005E6C804775FF015350EF800E75FF015332
:1030B00050DF800675FF0153507F8550C9802C7505
:1030C000FF015351DF8551CA802175FF015352FE24
:1030D000801675FF015352EF800E75FF015352BFEA
:1030E000800675FF0153527F8552CB122D587F11F8
:1030F00031C6E4FF122F3D122C1B902AFB7402F004
:10310000902AFFE0247F600904701631CC740A8095
:1031100007122EEE31CC7458F0902AFE7403F03171
:10312000DB902B00E0F4600221C3902B03E0FEA3B0
:10313000E0FF64104E7006902B00740EF0EF6420D8
:103140004E7006902B00740FF0EF64404E700690A6
:103150002B007410F0EF64804E7006902B007411F9
:10316000F0E4B5070AEEB40106902B007412F0E407
:10317000B5070AEEB40206902B007413F0E4B5070D
:103180000AEEB40406902B007414F0E4B5070AEEBE
:10319000B40806902B007415F0E4B5070AEEB410DD
:1031A00006902B007416F0E4B5070AEEB4200690E2
:1031B0002B007417F0E4B5070AEEB44006902B001C
:1031C0007418F0022ED1EF4420F5FE227F1031C694
:1031D000902AFB227B017D020219D5902B017401FC
:1031E000F0A3E4F02211171255D91219C1124A7B2B
:1031F0009002B3E064017F0060027F01121A251281
:103200001A2A121999125E3D7A0279B6121962F1E0
:1032100023FE4FFDA3E0FC4DFDA3E0FB4D600BEE54
:103220005FFFEC5FFFEB5FF47002D1B490121CE023
:10323000FF540324B6F582E43402F583E06F900274
:10324000B1F02275FF0275E404E4F5E4C22675FFCF
:1032500002901215E0603CE5E654036401703412FC
:103260001A4D1251504020901222E0600DE014F0EF
:103270007008122A90E4901215F0901215E0700276
:10328000610A1240F6610A122A90D226E4901215C1
:10329000F08077122A9012563D9002B3EFF0901210
:1032A00000E0B47A14901214E0B49C0D9002B3E0E4
:1032B000FF64056004EFB4032EE49002BCF09002BA
:1032C000BCE0FFC394405013E42FF582E43412F5C0
:1032D00083E4F09002BCE004F080E3901200747A82
:1032E000F0901214749CF01219DA7B017A127910A2
:1032F0007D017F011219D57A1279117F21F1337A7C
:103300001279127D017F221219D5121A5212563DDE
:103310001248DE9002B3EFF01219CB1248999002D6
:10332000B3E0FFB40602800C3026047F02800590D3
:1033300002B3E0FF121A98EF24FFB3923B75FF022D
:1033400053E6BF9002B3E064016005E4901215F00B
:10335000124925121A5731E5901215E0700F203BE3
:103360000C121A9D7B017A27790E121A0C90121DED
:10337000E030E00280033026057F01122FB8D2AF83
:10338000303B78124A5D124BD5121AA21219D04066
:10339000F29002B2E06042D17EEF7006F1C7940075
:1033A0004037E51470FCE51520E5031251AB121906
:1033B0005DEF70FAF1D8500512560050057F0112EA
:1033C0002F3D9002B2E0B40204E4FF80099002B203
:1033D000E0B403057F0112411391CCE51530E1A360
:1033E000D18F4002E4F0E51520E50791BA7D011286
:1033F0004E139002BC91BDF12B80881248261247D3
:10340000F45002D1B49002B2E0605E9026A4E07065
:1034100058D17EEF7006F1C79400404DE51470FC62
:10342000E51520E50A90121DE020E0031251AB12D1
:10343000195DEF70FAF1D8500512560050057F0162
:10344000122F3D9002B2E0B40203E480189002B261
:10345000E0B403047F01800E9002B2E0B4050A904C
:1034600012157401F0FF124113124A5D124BD5126E
:103470001A899002B0E0700491CC8015124865FF63
:103480009002B0E0FEC3EF9EC394064002E4F0D287
:10349000AD121807E51530E119D18F4002E4F0E5CF
:1034A0001520E50791BA7D01124E139002BC91BD23
:1034B000F12B121A3E12488461FB9002B4E075F0C1
:1034C000AA9002BF1223D5AF82AE8322E4900449B2
:1034D000F1BF75F0E5E55AD16454F064407002C163
:1034E00020E4FE75F0E5EED164FDB4010990044AD4
:1034F000EEF0E4FF8022EDB4020B90044AE0B4FF4A
:1035000004EEF0800E75F0E5EED16454F0FDBD8060
:10351000027F010EEEB403CBEF600690044A74FF05
:10352000F090044AE0F47002C1201250985002C199
:1035300020E51530E102C120D16C9000041223D5A2
:10354000E030E40A9000061255EBE0549FF0D16C95
:103550009000B81223D5E0540FFEBE05099000BCC0
:10356000D1A4E030E11AD16C9000031223D5E02001
:10357000E52775F0E5EF9000BB1223D5E0B4FF1905
:1035800090044AE0D1ABC083C082E04401FFA3E0D5
:10359000D082D083CFF0A3EFF090044AE0FDD1AB0E
:1035A000E0FEA3E0FFC006C007ED75F0E5A424B37C
:1035B000F9740035F0FA7B01C002C001D16C9000B3
:1035C000D91223D5E090042CF0EF75F0E5A424097E
:1035D000F9740035F0FAA3122418D16C9000B212DD
:1035E00023D5E0900430F09000DAD1A4E0900431CB
:1035F000F0E4A3F0D001D002D007D006123BDC509B
:103600001F90044AE0F55A75F0E5D1644440F0900B
:1036100004497401F09022A2F0E51530E202D322B1
:10362000E51530E2347F04D17575F0E5E55AD164D3
:10363000FF54F06440701D75F0E5E55AF1B7540F82
:10364000F075F0E5E55AD1644480F0E55AF13D1299
:10365000199480057F01122FB8900449E024FF22BD
:1036600075F0E5EF9000011223D5E02290044AE0C6
:10367000FF75F0E522C2AFEFF45215D2AF22E4FF9E
:10368000D16060037F00220FEFB403F47F01227F3B
:1036900002D1759002B4E09002BCF09002B404F044
:1036A000C394022275F0E5EF0223D575F0E5900092
:1036B000050223D5E4FF122FB8EF60437B017A02A5
:1036C00079B6F1009002B6E0C394C040EF7B017A76
:1036D0000279B8F100F1235FFFA3E05FFFA3E05F91
:1036E000F460EA90121DE030E0057F01122FB8E48B
:1036F00090121CF07B017A0279B6E0FD1219672264
:1037000090043F122418C23CE4FF122FB8BF010BF3
:1037100090043F1223E11243F7923C7F01122FB82D
:10372000A23C229002B6E0FFA3E0229002B5E0FDA9
:103730000219BC7B017D011219D57B012275F0E5D0
:10374000A42401F9740035F0FA7B0122900447EFBC
:10375000F1BFFEFD75F0E5EDD164FC700C900448FE
:10376000E0B4FF02EDF00F8006EC30E0027E010DC8
:10377000EDB403E0900447E06401600DEFC39402F0
:103780005007EE7004A374FFF0900448E0FFC39468
:1037900003501DEFF13D7DE5E4FF121958900447F9
:1037A000E04410FFA3E0FE75F0E5F1B7F0EE808D88
:1037B0007B007A007900229000011223D5EF22F0DD
:1037C000A374FFF0E4FF229002BDE0FEA3E0FF122D
:1037D0005010D3EF94C8EE22900001740193B4000E
:1037E00007E493B41802C322D32275F002A4248004
:1037F000F9740F35F07B02FEAF01E4FCFD022E48A8
:1038000075F002A42480F9740F35F07B02FEAF013D
:10381000AD4EAB05E4FCFD902D89EBF0022D06FECC
:10382000AF017B007A007982902D317404F0902DE5
:103830002E114DC007902D2E1223E1902D31E0FF67
:10384000902C11E4F0A3EFF0D007022E831224187D
:10385000E4FCFD22902CB7114DC007902CB7122329
:10386000E1902CBA125DECD007902B701223989047
:103870002B741224183176902B775174902B701280
:103880002370317C50022127902B02E0902B017194
:1038900078E4FCFD902B7012238C1222F7902B7988
:1038A000EEF0A3EFF04E60323129FFC3902B02E01F
:1038B0009FFF902B01E09EFE902B79F0A3EFF090FC
:1038C0002B771250455002718B3131E94A60053136
:1038D00029FF80467E007F008040902B77E0FEA38A
:1038E000E0FF4E6040902B01E0FCA3E0FDD3EF9D94
:1038F000EE9C400A902B79ECF0A3EDF0800D902B1C
:1039000077E0FFA3E0A3CFF0A3EFF03131E94A6005
:10391000053129FF80047E007F00902B75EE8FF02B
:1039200012214980B5D322C322902B79E0FEA3E077
:1039300022902B741223E1902B79E0FFA3E0902CCE
:1039400008CFF0A3EFF0902B70122370122DD390BC
:103950002B79E0FEA3E0FFC3902B78E09FF0902B43
:1039600077E09EF0902B7012238CE4FCFD1221BFB7
:10397000902B70122398902B740223E1902A181236
:103980002398902A1C122418E4902A3FF0D3902AFE
:1039900020E0941E902A1FE094004001227B017ACF
:1039A0002A7921902A1FE0FFA3E0902C11CFF0A3E9
:1039B000EFF0902A18122370122E83902A1C1223E3
:1039C000E1E94A600B902A3FE0F58231FBFF80027B
:1039D0007F00902A3FE02421F582E4342AF583E039
:1039E0006F6002C322902A3FE004FFF0D3902A20A8
:1039F000E09F902A1FE0940050C1227583000220AE
:103A00005F902C5B51BAE58F20E0FB7143538FF040
:103A100075FF017E10902C5E514531FBF593EE70E1
:103A2000F47E10902C5B514531FBF594EE70F47FE1
:103A300001514C7180EF70FB7E10902C61514571EB
:103A400059EE70F6221223E11E8E8222EFB401029B
:103A5000614D75FF01E58F54F04406F58F22902CDF
:103A6000BE114DC007902CBE1223E1902CC15174A1
:103A7000D007217CE0FFA3E0902A1FCFF0A3EFF056
:103A800022902D7A51BAE58F20E0FB7143538FF0DD
:103A900075FF01E4FF902D7A1223E18F8231FBF54F
:103AA000930FEFB410EFE4FF902D7D1223E18F828E
:103AB00031FBF5940FEFB410EF2212241875FF01BB
:103AC00022902C6451BAE58F20E0FB7143E58F54BE
:103AD000F04402F58F75FF017F10902C641223E1F2
:103AE0001F8F8231FBF59471348F82758300E4124D
:103AF00020C0EF70E5713AEA540FFD7134EAC4F862
:103B000054F0C8E9C4540F4854F04DF592713AE9A5
:103B1000F59875FF017134E9F59675FF01759910F7
:103B200075FF0175971075FF01439120714DE58F69
:103B300020E0FB22902C6A0223E175FF01902C67A4
:103B40000223E175FF01538F0675FF012275FF0106
:103B5000E58F54F64401F58F22758300E59302202A
:103B6000C0902E8051BAE4FF902E801223E18F8204
:103B700071590FEFB410F12224FFFFE034FFFE2251
:103B800075FF01E58F5401FF22EFF0A3ECF0A3EDE8
:103B9000F02290043C7189751401E4FBFDFFB18BA8
:103BA0007B017A047916B1EEE4FD7F02F1B7F1F4FE
:103BB0009004167455F090043CE0900417F09004C3
:103BC000147402F090043EE090042530E507E4F020
:103BD000A3743CF022E4F0A374F0F022900427EEEA
:103BE000F0A3F1EEC2EBE5146002A16DE51530E241
:103BF00002C3221250B75004C243D10DF1C8F5D10F
:103C0000E5D120E0FBE4F510C226900428E054073B
:103C1000C39403E494005022900430E0FF90042CFD
:103C2000E02FFFE433FED3EF9440EE6480948040B5
:103C300009431504A22592EDD32290042D1223E10D
:103C4000CFE9CF8A118F12900430E0F516AE111231
:103C500056FAB1BF8B1C8A1D891E90042CE0F51FFB
:103C6000900427E0FCA3E0FD5460602E900431E056
:103C7000FF7192B17BFB7A00900425E0FEA3E0FF88
:103C80007C007D171220E2EF2BFFEA3EFEEF2414AA
:103C9000FBE43EFA7D027F01A154900427A3E05487
:103CA00007900414F0751408B1BFB1EE90042CE035
:103CB000FFAD16F1B7900414E06403702A7B01FD98
:103CC000B178B1CD500EB1BFE92407F9E43AFA74E6
:103CD0000112208CE4F5FFF1DBB17B2428FBE433F7
:103CE000FA7D03E4FF806D900414E064027018B163
:103CF00075B1CD4002B1FBF1F4B17B2414FBE43388
:103D0000FA7D027F01804DE4B175B1CD4002B1FB77
:103D1000E4F5FFB1C544104E7F0560027F0AEF5401
:103D20007FFFE5D254804FF5D2E4F5FF43D280B156
:103D30007BFD7C00B1C544104E7E0060047F0A808C
:103D4000027F05EF25E0FFEE33FEEF2DFBEE3CFAA0
:103D50007D017F0112551BB1C5FF1252844006A29E
:103D60002592EDC322A22592EDD2EBD322A2259279
:103D7000EDD2EBC322FB7D01FFB18B90042912230E
:103D8000E1E92407F9E43AFA022046E4F5FF75D1A7
:103D900002E5D120E0FBE4F5FFF5D1EF6008E4F5A2
:103DA000FF43D2808006E4F5FF53D27FEB6006E448
:103DB000F5FF43D104ED6006E4F5FF43D1082290FE
:103DC00004290223E1900427E0FEA3E022FF9004EF
:103DD00030E0FD90042CE02DFDE433FCED2401FDEA
:103DE000E43CFCD3EF9DEC6480F874809822E4F509
:103DF000FFE9124FD7EA540F42D62290042912232A
:103E0000E1E92407F9E43AFA74FF02208C902EB419
:103E1000E5F4F0E0547FF5F47F827E00F1E812468D
:103E2000025005E5FC20E6F6304308902EB4E0444D
:103E300080F5F4F1E41246025005E5FC20E6F67543
:103E4000FF01E5D520E702C322E5F4D330E601C344
:103E500022C0E0C0F0C083C082C0D075D008C0FFCF
:103E60001246F18F18E51864027051E51424F860C9
:103E70004124076002E1AA900425124FE07028ABAC
:103E80001CAA1DA91EB1EEAD16AF1FF1B7E4FB7D54
:103E900001FFB18B75FF00F1DB43FA0475FF0012DF
:103EA0004E95751408E1AA43FA0475FF00124E9569
:103EB000E1AAC2EB751400431504E1AAE5186401F8
:103EC0006002E1AA125A5A4002E1AAE510702B855D
:103ED0001282851183E090044BF0E0FF645560048A
:103EE000EFB4540BD226124867900424F0E17875A1
:103EF000100275FF0075D908E1AAE5106402705739
:103F0000125E5AE090044BF01259ED1254EC9004FA
:103F100013EFF090044BE0FFD39409402590041375
:103F2000E0D39402400CEFD394AA7F0040027F01BB
:103F3000800D90044BE0D394407F0040027F01EF5E
:103F40006004F1D2803290044BE0FFF51675FF005B
:103F50008FD97510038053E5106403704DF1D2754D
:103F6000FF00900413E0C39403E5D350055402FF0F
:103F700080035401FFEF6005124F93802DC243D19F
:103F80000D75FF00F1CBF5D1E5D120E0FBC2EB438D
:103F90001502751000900413E0B403081516125EA4
:103FA0005AE516F09002B5E516F0D0FFD0D0D082D9
:103FB000D083D0F0D0E032E4F5FF8FD4F5FFCFED21
:103FC000CF8FD522C243D10DE4F5FFE5D154FE4495
:103FD0000222302605C22612460D22E5D254804424
:103FE00014F5D2227FE87E031257330246CDEFF05C
:103FF000A3022418E4F5FFE5D25480440AF5D22246
:10400000E4F97D0CAC0109EC90181F93FC0FEFAAAA
:104010000670010E14F5828A83ECF0DDE77F03223F
:104020008F828E83E4F0A37404113374361133A3AA
:10403000E4F022F08F828E83A3A32275FF0275E441
:104040000475E40175E4022275FF0275E404E4F5E9
:10405000E422900433313CEBF090121DE0543060C8
:104060000631395002C322900433E0B4040BA3118B
:10407000BB9004337403F08025900433E064057032
:104080001890121DE090043430E50611BB7F1F80AC
:104090000411C3E4FF3131800590043411C390044E
:1040A00033E09002B2F0900435E0901222F0124F0B
:1040B000F59002BDEEF0A3EFF0D322E0FB7D017F8F
:1040C000018006E0FB7D01E4FFEB600875FF015312
:1040D000CDFD800675FF0143CD02ED600553FBDF8A
:1040E000800343FB20EF600775FF0243E140227528
:1040F000FF0253E1BF2290121DE07B027D0130E5FB
:10410000087F0111C97F1F8006E4FF11C9E4FF3158
:10411000317F0143FB1075FF0243E640EF600D75F0
:10412000FF02E5E120E7FB43FB0D800343FB0E802C
:10413000FE75FF028FE32280F8A22622EFF0A3EDA6
:10414000F0A322902CD1313CEBF0902CD77401F0ED
:10415000C242123FE4D1025005E5FC20E6F7D1F15E
:10416000BF0108E4F5FC75FC408007D1F1BF0202F5
:10417000D322F1DF902CD2E0FF1259B875FF015322
:10418000D5DF53FAFB902CD1E0FF124DF8902CD2E2
:10419000E0902CD1B408085148245271EC800351AE
:1041A00048FF125797902CD3E0FFF1EE75FF017591
:1041B000FF03759B04123FE475FC42E5FC20E1041B
:1041C000D10240F4902CD4E0F075FF03E59B20E78A
:1041D00004D10240F4E59B20E70C75FF03759B1F9B
:1041E000F19DD242804FB1FB125766902CD2E0FD78
:1041F00090120FE05D701C902CD1E0FFB1FB1252C9
:10420000CD90120FE0FF902CD2E0FEEF4E90120FF7
:10421000F071BB124CDC7B017A2C79D5124DDB504E
:104220000FC3902CD6E09420902CD5E0940340E668
:10423000B1FB1257D3F14A304202214A902CD7E009
:10424000B40103D38001C322E025E025E02401F579
:1042500082E43412F583E0FCA3E0FDA3E0FEA3E0DA
:1042600022902A8612239875FF0243E180F19DF186
:1042700053902A9B1223A4002DC6C0E4F5FFF5A499
:1042800090120EF0A3F0902A967402F0125E9FFF37
:10429000F595EF14601814602624027036902A8673
:1042A0005156FF902A97122398902A928020902AA4
:1042B0008A5156FF902A97122398902A93800F9044
:1042C0002A8E5156FF902A97122398902A94E090B4
:1042D0002A9FF01259AB902A9FE0700FF5FFF596D8
:1042E00075FF0175D70975F418805A90120EE00415
:1042F000F0902A96E0124FCF902A9B5156FF902AB9
:1043000097B1F0FBC312231F500A902A975156FF12
:10431000A3122398902A9FE0FF12582C902A95E030
:10432000FFA3E0FDA241923F125959A35156FF90BD
:104330002D95122398902A96E0FFB143902A96512A
:1043400048FF125797125E806002418C7402F0128F
:104350005E9FF595E5F45407701E902A9BB1EBFB28
:1043600071DD7801122330902A96B1DDF583122396
:1043700098EB5149FF125797125E8070D275FF0378
:10438000759580F1E6400343F420A2419240125813
:104390008B902A9B51562420FFEE344E71EFE4FBA4
:1043A0007A04F9F871DD7801122330C23E124ACD49
:1043B000E4F5FFE5BD54F84404F5BD901213740113
:1043C000F07E127F01E4FDEF2DF582E43EF583E0FF
:1043D000FC901213E02CF00DEDB412EB221221DA56
:1043E000E47B7DFAF9F8122265EF2401FFE43EFE3A
:1043F000E43DFDE43CFC22902B7B124FC7F0902B58
:10440000811223A400000001902B857401F0F5FFB8
:10441000E5D554C070051250B75002C322E4F5FF31
:1044200053967F75FF0175D504F181F17B43D50863
:10443000E4F5FF5394FBF5FF53847FF5FF7598FF78
:10444000902B7FE5F4F075F49C75FF01A3E5E4F093
:1044500075E4257B017A2B7985125766902B85E0D0
:1044600064016002A121F5FF902B7E7414F0902B63
:10447000815156FF7801122343902B81122398E536
:10448000A730E1FB43A702902B815156FFE5A730EF
:10449000E005E47B018002E4FBFAF9F8EF4BFFEE64
:1044A0004AFEED49FDEC48FC902B81122398902B9D
:1044B0007EE014F070B8902B815156FF78101223D3
:1044C000307B6D7A4E79C678411221DAEF2439FFBC
:1044D000EE343071EFE4FBFA7901F8122265EE5404
:1044E0007FFEE4FDFC1254A3902B815156FFEB6F2D
:1044F000FFEA6EFEE8CDEFCDCCEECCECFF902B7B4F
:10450000124DD2EF1220AE902B7B124DD2900001B3
:10451000ED1220C090120FE030E606E4F5FF75962C
:104520008075FF01E4F5D5902B7FE0F5F475FF0170
:10453000A3E0F5E412587A902B85E0B40103D38010
:1045400001C322902D94EFF0E4A3B1EBFB71DD7871
:1045500001122330902D94B1DDF58312239890122F
:1045600010E0FF64806075EFC3947F503AEBB1DFD9
:10457000F583C083C0825156FFEEC0E0EFC0E090EB
:104580001210E075F004A4AEF0FBCAEECAEA33954F
:10459000E0F9F8D0E0FFD0E0FEC3EF9BFFEE9AFE1B
:1045A000ED99FDEC98802D902D94E0B1DFF583C05E
:1045B00083C082B1F0FB901210E0F40475F004A403
:1045C000FFAEF0EE3395E0FDFCEB2FFFEA3EFEE997
:1045D0003DFDE83CFCD082D08312239822E0FB25ED
:1045E000E025E02401F582E4341222FF7E04FDFC84
:1045F000E0F8A3E0F9A3E0FAA3E0227B017A2C79AA
:10460000D72275FF03E591C330E701D322C233E41B
:10461000902E35F0C234A3F0A3F075FF01E5D5204C
:10462000E702C322C244F11B203302C1B953F4DFB5
:10463000902E35E0FF124DF875FF0143D81030344D
:104640000543F440800353F4BFE4F5FF53F5F090C5
:104650002E36E0FAA3E0FBEA42F5EBF5F6D244F1A0
:104660001BD1C7E4F5FFE59320E604D10240F43006
:104670003453E5F430E3047D288010E5F430E2049F
:104680007D288007E5F430E1027D28F13C7F28D1C8
:10469000C9D10240FC7F78D1C9D1025028F14350E2
:1046A000F8F1D9EFC39D50F1F14350EDE5F720E566
:1046B000E8C244F11BF13C80E053F4BFF1E6400551
:1046C00043F420F1DFD3227FC87E00D1D475FF03ED
:1046D0004391802275FF03D3EF9402EE94004008CB
:1046E00074FE2FFF74FF3EFEEFF592EE540FF5912E
:1046F000227FFAD1C9E5FC30E604D10240F7E5FC9F
:1047000030E6037F032275FF01E5D530E6037F0223
:1047100022E5D57F0030E7027F0122AFF4EF547F1E
:10472000F5F4304405EF4480F5F475FF01E5D5203C
:10473000E702C322E5F4D330E601C32275FF03E4A8
:10474000F5912275FF01E5E4332275FF03E5912021
:10475000E7FB2275FF01438E1075FF0153DB7F7568
:10476000FF0175D5027F14D1C9F17B438E1075FF0F
:104770000143DB8075FF01E4F5D522F14A75FF01A5
:10478000227F3FFED1D4C1CDE5F730E50EE5F754E9
:10479000C07004D10240F1F13CC322D322E5FA30CB
:1047A000E1FB75FC8075FF0153D5EFE4F5FC75FC6A
:1047B00040F13CE5FC20E6FB22E4FFE5F754C06055
:1047C00002801675FF01E5D530E30DF14350F4F199
:1047D000D9EF60EFF14350EB22125E76AFD922752C
:1047E000FF0153D8EF2290120EE0D394012275FFFF
:1047F000018FDA2290121CE070111237234FFFA3B1
:10480000E04FFFA3E04F7003D38001C3229002B1B9
:10481000E064AA2411FFF022AE07110DEE04FEEFB2
:104820008EF084AFF022303A0C9026A4E07006FFA0
:10483000121A34C23A113A0219C630262011679072
:104840000424115E400AEF9ED394024010C2262237
:10485000900424E0F42FD394014002C22622FFE00A
:10486000FEEFC39E22C2AD90298BE0A3E02290020E
:10487000BAE0FCA3E04C700A9002BAEEF0A3EFF0AD
:10488000D322C3229002BAE0FEA3E0FF4E6009CA21
:10489000EECAC9EFC91224B622E4F553F554F55512
:1048A000F55675FF0185FD4F75FF0185C95075FFF0
:1048B0000185CA5175FF0185CB5222EF11C2F0026A
:1048C0000000901221F0902EB322901221E0FFF40C
:1048D0006005902EB3EFF074FF11C2E0FF2290123A
:1048E00021E0FE6406902EB36004EFF08008EEF045
:1048F00090122174FFF0902EB3E0FF22EFB4010973
:10490000D2AD75FF0143AE4022C2AD75FF0153AE7B
:10491000BF2275C80122E5C85402FF75C80222E50E
:10492000C85401FF2275FF02D2ADD2BD75FF0275DA
:104930008E7175570975FF02E58E546F4480F58EB0
:1049400022C0E0C0F0C083C082C0D075D008C0FFD4
:1049500075FF02E58E30E42875FF02E58E54EF44C2
:1049600010F58E900000E004F0E55730E002052DD0
:10497000E557700A75570990298B319A80021557AF
:1049800075FF02E58530E40431A60558D0FFD0D08C
:10499000D082D083D0F0D0E032E475F0010221491A
:1049A00075FF0253857F75FF0243851022AB07AA6E
:1049B0000631A0ED4C70050DBD00010CD3ED94FF48
:1049C000EC9403500AEDF586EC4430F5858052D323
:1049D000ED94FCEC940F5017EDAE047802CEC313A7
:1049E000CE13D8F9AC06F586EC4434F5858032D385
:1049F000ED94F0EC943F5016ECC4F854F0C868FC09
:104A0000EDC4540F48F586EC4438F5858013EDAEBF
:104A1000047806CEC313CE13D8F9F586EE443CF5E0
:104A200085902E83513AD232E4F55875FF024385C2
:104A30004075FF02438580D23122AF03EAF0A3EF35
:104A4000F02231A0C231E4F558C2322230310D31AA
:104A5000A0E4F558D23275FF02438580223032132C
:104A6000E558600F1558902E83E0FEA3E0FF4E60DE
:104A700002517422AA06A9070224B6E4F558C232EC
:104A800022902D8BECF0A3EDF0AA07AF03EF70019D
:104A90000FEF75F00AA4FFAEF0EA918951C5EA71F3
:104AA000C7EEF0A3EFF0902D8E71BD243DF582E4AA
:104AB0003429F583EFF0902D8BE0FEA371BD243BEC
:104AC000F582E43429F583EEF0A3EFF022902AA0DA
:104AD000122398E4F5FF75BB0575BB8575FF01755D
:104AE000D502203E0812478112474A91DC75FF012A
:104AF00043D520303E026198E4F5FF538EF7438E94
:104B0000077D04E4F5FF8DBCF5FF43B102E5B1304C
:104B1000E2FBE4F5FFAFDFEFFEACDEECFBEBFFED1D
:104B200025E0249EF582E4342A51C5E4F5FFF5FF23
:104B300053B1FD0DEDB40CCB902AA0124256FF7874
:104B400009122330A3EEF0A3EFF0E4FDED25E024FD
:104B5000A8F582E4342AF583E0C313FAA3E013FB3B
:104B600071B2F583E0C313FEA3E0132BFFEE3AFE10
:104B700071B251C5ED240490120DF0EDC3940750AD
:104B800017CFEDCF0DEF71B39137FFC3902AA5E09A
:104B90009F902AA4E09E50B4E4F5FF758EC8F5FFFF
:104BA00090120DE0F5BCE4F5FF75BB8075FF01F5D3
:104BB000D522ED25E024A6F582E4342A22E0FFEA9E
:104BC00075F007A422E55975F007A42437F582E4AF
:104BD0003429F58322900000E0604EE014F0E4F503
:104BE00059E559C3940C50ED71C5E0FEA3E04E6049
:104BF0003471C5F1E0702E913EFF6007F4600491BE
:104C00003E14F0913E600EE55991899137FF71C5D0
:104C1000EEF0A3EFF0912A4E6008912AAA06F9124D
:104C200024B6122F0C055980B822E55975F007A457
:104C3000243BF582E43429F583E0FEA3E022E55924
:104C400075F007A4243DF582E43429F583E0229031
:104C50002D8FEEF0A312413CEBF07FFFA3E0F9E9CA
:104C6000C3940C5022E971C7E0FCA3E04C7015AF6F
:104C700001902D8FE0FCF1C0A3E0902D8EF05181CA
:104C8000E904FF220980D822EF75F007A42439F542
:104C900082E434292291C450109188F583E4F0A372
:104CA000F0EF71C7E4F0A3F00EAF062291C45011EB
:104CB0009188F1B9FD4C6009EF71C7ECF0A3EDF0FC
:104CC0000EAF0622E4FE1FEFC3940C227E1A7FD49F
:104CD0007BFF7D64902D937402F0814FE4F5FF75A6
:104CE000C2E17F1EB1C730E707E4F5FF75C2A1221C
:104CF000E4F5FF75C28122CDEFCDCCEECCB13DAB5A
:104D000094EF4BB1F0CBEFCBFAE59130E71DB1401A
:104D1000A994E9F582EF4582FFEB2DF582EA3CF597
:104D200083C3EF9582E5F0958340DEE59120E70CA3
:104D3000CEECCECFEDCF12478412474A2275FF0347
:104D4000AF93EF75F010A4FF22902DD6EFF0A3F1F2
:104D5000C7F075FF011246F1EF64016002C322E55E
:104D6000F430E602C3227FE87E03124784124788AC
:104D7000400122C243123E0D902DD6E0FFB1F85300
:104D8000F4DFD243123E0D7F787E0091F775FF016C
:104D900053E4BFE5E430E7FB125E767F8AB1C730AB
:104DA000E605B1CFE4800775FF01B1CFE5D9122048
:104DB000AE75FF0143E4401247E6400343F420127E
:104DC0004788400122D322FE91F790120FE02290F3
:104DD0002DD7E0FBA3E0FAA3E0F922B13DAD94EFBB
:104DE0004DB1F08FF01221A0E591C330E701D3223D
:104DF00024FBFFE5F034FF2275FF01E5D530E60224
:104E0000C322E4F5FF439A80EFF1CFE4F5FF539A14
:104E10007FD322900439EEF0A3EFF0E514706D1209
:104E200050AF5005C243123E0D900439E0FEA3E09E
:104E30008E11F512AE11AF127DAAF172E4F5FF7575
:104E4000D901F510E5155421602AE51530E504E493
:104E5000FFB1F8E490043BF090043BE004F0D19CF7
:104E6000EF600990043BE0C3941040EC7F02121AFB
:104E7000935315DE900413E07F00B403027F01D149
:104E80008DD243123E0DD2EBA22592ED22B1F84312
:104E9000FA04E4F5FF53D1FD43D10122E4902DCE75
:104EA000F0A304F0E4902DD1F0E5FA30E1FB75FFBA
:104EB00001E5D530E7037F0022E4F5FF75E5081230
:104EC00047DFE5D530E61A75FF01902DD0E5DAF021
:104ED000E4F5DA75FF01E5D630E3FB902DD17401DE
:104EE000F075FF03759B0475FC4175FF03E59B306E
:104EF000E7FBE4FB75FF038B95EB124249FF12576A
:104F0000970BEBB403EE75FF03759580E4F5FF7521
:104F10008EC891DC75FF0153D5FB12473C7F1412FC
:104F200046C912477B43D504902DD1E07009124742
:104F30003C1246C712474A7B017A2D79CF1257D3CC
:104F4000902DCFE0902DCE7006E04404FF8002E06B
:104F5000FF902DCEEFF090120EE0B4010675FF0128
:104F600043D81075FF01902DD0E0F5DA902DCEE0FA
:104F7000FF22E4F5FF75D102E5D120E0FBE4F5D195
:104F8000F5FFEFF1D7EE540F42D6E4F5FFCFEDCFAA
:104F90008FD422123FC4F5D1E5D120E0FBE4F5FF28
:104FA00075D901900413E07F00B403027F01D18D15
:104FB000D243123E0DE4F51022F583E0FCA3E0227B
:104FC000A3E0FDA3E0FB22EBF0A3EAF0A3E9223388
:104FD000333354F8F5F422F5D7E4F5FF53D6F02235
:104FE00074FFF5F012214945F022E4FB7D01E490C5
:104FF0002D93F0814FA2AFE433FFC2AF90298BE035
:10500000FCA3E0FBAA04EF24FF92AFAE02AF0322A1
:10501000902E85EEF0A3EFF0124FF5902E851145FE
:105020005009C3EF9DFFEE9CFE8019902E85E0FC99
:10503000A3E0F4FDECF4FCED2401FDE43CFCED2FD9
:10504000FFEC3EFE22E0FCA3E0FDD39FEC9E22128B
:105050002046FF124C95E40220AE902CC312241877
:10506000118B114FAE04AF05902CC8E0FDA3E0FBFF
:10507000124FEE902CC31191118B122046B4FF04F5
:10508000E41220AE118B122046FF22902CC3022383
:10509000E11223E1EF0220AE11B7500411A8400342
:1050A000302603D38001C322E5F754E024FF22C257
:1050B000EBA2ED9225C2EDE5F4C330E701D32290D7
:1050C0000445EFF0C24412471BD233900445E090F0
:1050D0002E35F0D234A3E4F0A3740DF012461AE496
:1050E000900446F011B7503E900446E07038E5F762
:1050F00054C060F0313D313D900446EFF0BF551291
:10510000313D90044631E26F90044670147402F011
:1051100080D2900446E0B454057433F080C6900405
:10512000467401F080BE900446E0B40207C2431208
:105130003E0D800012460D900446E0FF22E5F72068
:10514000E008E5F754C070F5FF2243F701AFF922FC
:105150005315FEE51530E5057F01124DF8124E9C02
:10516000EF70FA7F02121A937F0111BF90044CEF87
:10517000F0BF0202801390044CE0B43311E4F07FDE
:105180000111BFBF020D90044C7401F08005E49042
:10519000044CF090044CE0700B11B75005C2431260
:1051A0003E0D31D590044CE024FF22E5147024110B
:1051B000AF5005C243123E0D31D5123FC8F5D1E5BF
:1051C000D120E0FB4315205315FEE4F510A22592F3
:1051D000EDD322C32212479D7F08021A93E4F514EF
:1051E00080C9EFF090121CE022AF14EFC36001D32E
:1051F00022EFC3940E5005900415EFF022E51754EA
:105200000FFF22E517C394F0501F5317F0512CFEE7
:10521000740FC39F4005EE940E400543170D8003A5
:10522000EF4217E517540FFF227F0022E517C45401
:105230000FFEEF902B1E932E22512CFFC3940E4095
:10524000027F0DEF902B0093FF22EF30E303AF13AB
:1052500022AD1B202704EE30E00BE517C394F0507D
:1052600020519C8018E51A6006FDE4F51A8012E5CD
:1052700017C394F0500BE517540FFF60045139AD7C
:1052800007AF05224315015315DF514A91524004DF
:10529000E4F514225315FB124E8FD322900415E02F
:1052A000FDFFC3740E51C6EFC4F8540FC868FFEE7B
:1052B000C454F048FEE51754F0C39FEE123DE77F5B
:1052C000005002AF05229FFFE49400FE22902DD2F1
:1052D000EDF0901211E0FEF46006A3E0FDB4FF0CC7
:1052E000902DD47418F0A37413F08008902DD4EE90
:1052F000F0A3EDF0122046640160028125902DD2CA
:10530000E0FE64086004EEB40408902DD37428F025
:105310008006902DD3743AF0EF124249FF12231108
:10532000E4912DEF24D8FFEE343FFEED3493FDECF5
:105330003416FC7B007A80790378001218B691A3AA
:10534000902DD5E0FF902DD4E0C351C6E4FCFD12B2
:1053500021DAECC0E0EDC0E0EEC0E0EFC0E0902D5F
:10536000D59126912DD0E0FBD0E0FAD0E0F9D0E045
:10537000F8EB2FFBEA3EFAE93DF9E83CF8902DD333
:1053800091261221DAEF2454FFEE340B1243EFE49E
:105390007BA87A16F9F81218B6CBEFCB902DD2E095
:1053A00014605D14601B24FE600C24FC7077E4F52F
:1053B000FF75CE318006E4F5FF75CE21F5FF8BCF6A
:1053C00022E4FAE4F5FFEA2440F5CEE4F5FFEAFF33
:1053D000C3740751C674432FF58274183EF583E4F5
:1053E0009135C39DF5CFE4F5FFEA2448F5CEE4F509
:1053F000FFEA90184391352DF5CF0AEAB408C4228C
:10540000E4F5FF75CE01F5FF8BCFF5FF75CE0EF5F8
:10541000FFEB25E0F5CFE4F5FF75CE0FF5FFEB755B
:10542000F003A4F5CF22E0FFE4FCFDFE227B64FA4A
:10543000F9F80221DA9325E0FDE433FCEB75F01076
:10544000A4FFAEF01220F4CDEFCDEBFFE4C313EFD9
:105450001322900437EFF0900414E024FD6011044F
:10546000700791997404F0801291997408F0800B80
:10547000E4900438F09004367402F07F01121A931D
:10548000900438E0FF900436E0FDA3E0FBE4902CAC
:10549000D4F012414350E9D3229004387401F090C3
:1054A000043622C8ECC8C9EDC9CAEECACBEFCB227C
:1054B000E51754F0C4540F2FFFC3941040027F0F20
:1054C000EF902B0E93FF227E10EE60091EEE902BC4
:1054D0000E93B507F4EEC3940E40027E0DEE902BB2
:1054E0000093FF22C2AFEF4215D2AF22EF24FE603D
:1054F0000C24FE600580007F01227F02227F0322B0
:10550000E51520E50A123FC4F5D1E5D120E0FBE422
:10551000F51022900425E0A3E0FF22900442EFF072
:10552000ED24FE60191460262402703BEB2402FF78
:10553000E43AFE7C007D501220E27D60801EB19135
:10554000C333CE33CED8F9FF7C007D28800EB191D5
:10555000C333CE33CED8F9FF7C007D641220F490A3
:105560000443EEF0A3EFF0900442E0B19CF583C059
:1055700083C08212238C900444E02401FF900443F2
:10558000E03400FEE4FCFD1221BFD082D083022370
:1055900098EB2401FFE43AFEEF78032225E025E0B2
:1055A0002418F582E4340422EFB19CF583122370B1
:1055B000022356E4900418B1CAE4FF90041CB1D150
:1055C000FFFEFDFC900420022398FFFEFDFC022359
:1055D00098FEFDFC122398E422E4FF900001B1EB59
:1055E000E4F00FEFB403F4E4F55A2275F0E5EF02AE
:1055F00023D5E40220AE122046540F0220AE80F6DE
:105600007F017E009017FCE4935EFE7401935F4E71
:1056100024FFB322EF7011ED600775FF0143AE0167
:105620002275FF0153AEFE22EFB40110ED60077545
:10563000FF0143AE022275FF0153AEFD2275FF024A
:10564000E5E630E2037F0322E5E630E3037F002254
:10565000E5E630E1037F0422E5E67F0530E0027FE6
:105660000122EF600775FF0253E6BF2275FF024378
:10567000E64022EF14600F146014240270188B802F
:1056800075FF018DFD228B9075FF018DC9228BA0C6
:1056900075FF018DCA22AF038FB075FF01AF058F73
:1056A000CB22902CCB122418EF1460111460182414
:1056B00002701ED1DCE580D1E2E5FD801CD1DCE585
:1056C00090D1E2E5C98012D1DCE5A0D1E2E5CA8043
:1056D00008D1DCE5B0D1E2E5CB0220AE902CCE02C1
:1056E00023E11220AE75FF01902CCB0223E1E4F5FB
:1056F000FFAF9122E4F5FFAF9222E4F5FFEFF5D87A
:10570000E4F5FF53D60FEE540FC4F854F0C8E4C4C8
:10571000540F4842D622E4F5FF8FD422E4F5FFE58A
:10572000D1540133333354F8FFE4F5FFE5D3540784
:105730004FFF22902DC6EEF0A3EFF07B017A2D797A
:10574000C8124DDB5014902DC8E0FEA3E0FF902D51
:10575000C7E09F902DC6E09E400B902DC6E0FEA3B3
:10576000E0FF1246D422902E32124FC7F07F017C08
:10577000127D01E4FEED2EF582E43CF583E02FFF7F
:105780000EEEB412F0901213E06F600A902E3212F7
:105790004DD2E41220AE22902DCA12239875FF013B
:1057A000902DCAA3E0FDA3A3E4FFFEE4FC78101251
:1057B00023308FE1902DCAA3A3E0FEA3E4FFE4FD14
:1057C000FC78081223308FE2902DCAA3A3A3E0FF38
:1057D0008FE322C23D75FF03759B1F75FF03901277
:1057E0000FE0FF20E71BE59A540FC394024012EF2D
:1057F0004480F0E4F5FF75C2A143FC0475FF03D2B9
:105800003DE5FC30E609E59A540FC3940540CCE52C
:10581000FC30E611E41220AE75FC80F5FC75FC400E
:10582000E5FC20E6FB303D031243BB22EF30E00EE7
:1058300043F401E4F5FF43A404F5FF759624EF302B
:10584000E10E43F401E4F5FF43A408F5FF75962447
:10585000EF30E20943F402E4F5FF75961EEF30E302
:105860000943F404E4F5FF75961075FF01EF540346
:10587000600475D7122275D72D22E4F5FF7584E6F2
:10588000F5FF439404F5FF75981422E4F5FF759332
:105890003F75FF03759A40117AE4F5FF759C93F507
:1058A000FF75A1A3F5FF758531F5FF758628E5FA2B
:1058B00054304480F5FA75FF0175E74A75FF0275AB
:1058C000DF4975FF0143D30475FF0153D367E4F546
:1058D000FF53E6BF75FF0175D825F5FF75B503F5D4
:1058E000FF75B215F5FF75BA02F5FF75AFB3F5FF99
:1058F00075CD0AF5FF75CB08F5FF75CA12F5FF7572
:10590000BF0EF5FF75CC96F5FFF5BDF5FF75C281AD
:10591000F5FF75AEE1F5FF75DA55F5FF75F580F524
:10592000FF75E903F5FF75E933F5FF75972A75FFF4
:1059300001759B42759CA4759D29759E48759F2491
:1059400075A11275A312759AF820400CF5FF4396C5
:105950008090120FE04440F022CCEFCCCFEDCF741A
:10596000017E00C8EFC8088005C333CE33CED8F916
:10597000FFCDECCDEF5D601B303F1875FF0175DC8E
:10598000AD75FF0175DDCDE4F5FF759A74F5FF7512
:1059900094842275FF0175DC5375FF0175DD33E4D6
:1059A000F5FF759A14F5FF7594042275FF0175E4EF
:1059B0006575FF0175D6472275FF01E5D530E60212
:1059C000C32253FACFEFB4080543FA308012EFB484
:1059D000040543FA208009EFB4020543FA10800061
:1059E000D322E5F45418131313541FFF22E5F75480
:1059F00006FFBF06037F0822E5F75406FFBF040336
:105A00007F0422E5F75406FFBF02037F02227F01D5
:105A10002275FF01E5D520E602C322E5FA540360B2
:105A2000FA75FF018FC3D322CEEFCE75FF01E5D506
:105A300020E602C32243FA04E4FDEDC39E50077F33
:105A40005551110D80F4E5FA543070047F0F800237
:105A50007FF05111D322E5F71322E5F754C024FF5C
:105A600022E4902A63F07B017A2A794A122FFC9073
:105A70002A4CE0FBB41122902A5F1223A400007884
:105A800000902A5B1223A400006000902A40741842
:105A9000F0A3E4F0A3F0A380277412D39B502790C7
:105AA0002A5F1223A400020000902A5B1223A400A4
:105AB000020000E4902A40F0A3F0A37418F0A3E4DD
:105AC000F0902A6304F0902A63E0FB6017E4FFFE85
:105AD0007D02FC902A4CE024EFF9F8122343902A2F
:105AE00044122398AF0322902EADEFF0E4A3F09080
:105AF0002A63E0602171277008711C7E777D008029
:105B00000AB1D55011711C7EFF7D017C00122D065B
:105B1000E433902EAEF0902EAEE0FF22902EADE05A
:105B2000902D89F07FFF22E4FFFE7D02FC902A4445
:105B300012238CC302231F902BED122418902BF0FC
:105B4000ECF0A3EDF0902A63E0700261F871277029
:105B50004D9112713050479125FDA3910CE4FB7AD1
:105B600018F9F8C312231F5035902BF212238CC35F
:105B7000E49BFF74189AFEE499FDE498FCE4902BF2
:105B8000EE8FF0122149C3902BF1E09FF0902BF0A3
:105B9000E09400F0902BF21223A400001800911B57
:105BA000910CB1BF9125FD1221BF902A44B1E5406F
:105BB00042B1D54024E4911271304037902BF0E08F
:105BC000FEA3E0FBE49BFF74A09EFE74019400FD25
:105BD000E49400FCA37130501A911B910CC0079003
:105BE0002BED1223E1902BF0B1ECD007123869E4D1
:105BF000338001E4902BF6F0902BF6E0FF22902A00
:105C000042E0FEA3E0FFE4FCFD902A5F12238C0239
:105C100021BFFF7E18FDFC902BF222902BF2122365
:105C200070902A5B22902BF0E0FEA3E0FFE4FC22C0
:105C3000902E7D12241871FEEF24081243EC7A2A6C
:105C40007948B1947402F0122E83902A489128FD6D
:105C5000902A5B910C7A2A794DB194740EF0122E31
:105C600083B19DEE34801243EFB18E902A4FB1A7DD
:105C70007F0F7E1DB16FB17DFFAEF0C006C007B1D2
:105C80009DE43EB186902A51B1A7D007D006B16FEE
:105C9000B17DFFAEF0C006C007B19DEE3480B18685
:105CA000902A53B1A7D007D006B16FB17DFFAEF0F7
:105CB000C006C00771FEB18E902A4EE02400FE900F
:105CC0002A4DE034E8902993F0A3CEF0D007D00617
:105CD000B16FB17D45F0C37001D32290298DEEF0F4
:105CE000A3EFF0A312237090299512239890299383
:105CF000E0FFA3E0902999CF8066902999E0FEA368
:105D0000E0FF4E6061C3EF9440EE94004006A37440
:105D100040F0800590299BEFF0B1B4FFB196EFF011
:105D2000902995122370122E8390299BE0FFC39037
:105D3000299AE09FF0902999E09400F0902995121B
:105D4000238C90299BE4FCFDFE1221BF9029951223
:105D50002398B166B1B4FDB1CC1219DF90298DEE54
:105D6000F0A3EFF0809490298DE0FEA3E0FF229154
:105D7000DB902E7D1223E1EE8FF00221A0902E7D8C
:105D80001223E1022175FEED3401FDE43CFC902973
:105D90008F0223987B01902C11E4F0A322902A5BC0
:105DA000122370E42FFF22E0FFA3E0902993CFF0AD
:105DB000A3EFF0227B017A29799C90299BE022A80D
:105DC00004A905AA06AB07227F0F7E1D902C82E452
:105DD000F0A3EDF022902A44122370E4FBFA790438
:105DE000F8D302231F12238CD302231FE0FFA3E06A
:105DF000902B77CFF0A3EFF02275FF01E58F54F6DB
:105E00004408F58F2275FF01E58F5408FF22EFB497
:105E1000010775FF0143AE202275FF0153AEDF225B
:105E2000EFB4010775FF014391202275FF015391E3
:105E3000DF221223E1E92409F9E43AFA227B017A0C
:105E400012791C902D350224181223E1E92405F95A
:105E5000E43AFA22122418022046E5122407F582B9
:105E6000E43511F5832290000302205F75FF015392
:105E70004FEF854FFD2275FF01E4F5EA75EAFF2239
:105E8000902A96E0FF14F0EF228B828A830224BAD4
